:020000040800F2
:1000000050250020D1130008151800081718000803
:100010001B1800081F180008231800080000000023
:100020000000000000000000000000002718000889
:1000300029180008000000002B1800082D180008DF
:10004000EB130008EB130008EB130008EB13000898
:10005000EB130008EB130008EB130008EB13000888
:10006000EB130008EB130008EB130008EB13000878
:10007000EB130008EB13000805130008EB1300084E
:10008000EB130008EB130008EB130008000000005E
:10009000000000000000000000000000EB1300085A
:1000A000EB130008EB130008EB130008EB13000838
:1000B000EB130008EB130008EB130008EB13000828
:1000C000EB130008EB130008EB130008EB13000818
:1000D000EB1300084D180008EB13000800000000A7
:1000E000EB130008EB130008EB13000800000000FE
:1000F000000000000000000000000000EB130008FA
:1001000000000000EB130008EB130008EB130008DD
:1001100000000000000000000000000000000000DF
:10012000EB130008EB130008EB130008EB130008B7
:10013000EB130008000000000000000000000000B9
:10014000000000000000000000000000EB130008A9
:10015000EB130008EB130008EB130008EB13000887
:10016000EB130008EB130008000000000000000083
:10017000000000000000000000000000000000007F
:1001800000000000EB130008000000000000000069
:10019000EB13000800F002F800F03CF80AA090E829
:1001A000000C82448344AAF10107DA4501D100F032
:1001B00031F8AFF2090EBAE80F0013F0010F18BFC3
:1001C000FB1A43F0010318475881000078810000B2
:1001D000103A24BF78C878C1FAD8520724BF30C873
:1001E00030C144BF04680C60704700000023002445
:1001F00000250026103A28BF78C1FBD8520728BF37
:1002000030C148BF0B6070471FB501F0DFFB1FBD59
:1002100010B510BD01F0ABFB1146FFF7F5FF00F084
:1002200039F801F0C9FB03B4FFF7F2FF03BC01F09A
:10023000FFFA000010B54FF6E0701849088014204E
:1002400001F006FA00F0B0FF38B1182314A20A2119
:10025000084600F0C9FD00BFFEE710BD10B5154807
:10026000006840F00700134908601348134908600C
:100270004FF4E1311248006801F022FB602001F0E8
:10028000CBF900F0AAFA00F0D7FDFFF7D3FF01F099
:100290005CF810BDFFF7E2FF00BFFEE700000020A2
:1002A0004E6F204149433332303420466F756E64BF
:1002B00000000000303802400004FA050CED00E0B8
:1002C00004000020704710B5024600200AE0002319
:1002D00022F81030084B33F810309CB2431C22F83F
:1002E0001340801CB0F5006FF1D310BD70479FED37
:1002F000030A704770477047281A00080000000082
:100300004FF48061FE4A11804901FE4A518340F456
:100310007F01FB4A921E11600821FA4A5183118322
:10032000C901F74A921E118070474FF48061F44A68
:1003300011804901F34A118340F47F01F04A921E73
:1003400011600821EF4A51831183C901EC4A921EC2
:100350001180704710B504460B462046FFF7D0FFCA
:100360001846FFF7E2FF10BD4FF48062E44B1A809D
:100370005201E44B5A83E44AE14B9B1E1A60082267
:10038000E04B5A831A8312031A834FF47F02DC4B2B
:100390009B1E1A600822DB4B5A831A8340F47F02AB
:1003A000D74B9B1E1A600822D64B5A831A834FF4F0
:1003B0007F02D34B9B1E1A600822D24B5A831A83AA
:1003C000D14AC532CE4B9B1E1A600822CD4B5A83B0
:1003D0001A8312035A83CC4A521CC94B9B1E1A60C3
:1003E0000822C84B5A831A8312031A834FF47F02E0
:1003F000C34B9B1E1A600822C24B5A831A8341F4D6
:100400007F02BF4B9B1E1A600822BE4B5A831A8381
:100410004FF47F02BA4B9B1E1A600822B94B5A83D5
:100420001A83B94AC532B64B9B1E1A600822B54BD7
:100430005A831A8312035A83B34A921CB04B9B1EF1
:100440001A600822AF4B5A831A8312031A8352117F
:10045000AB4B9B1E1A807047F0B5064600274FF441
:100460007F0040EA1624F0B240F47F0500210846E0
:10047000FFF77AFF4FF48060A14908804001A1494D
:10048000088300BF31E09E48801E046008209D491B
:10049000488308839A48801E0560082048830883A3
:1004A0009748801E04600820488308839448801E73
:1004B00005600820488308839148801E0460082056
:1004C000488308838E48801E05600820488308837F
:1004D0008B48801E04600820488308838848801E5B
:1004E00005600820488308837F1CB7F5615FCAD385
:1004F0004FF480608249891E0880F0BD4FF480600F
:100500007F49891E08807E481638006840F2FF4106
:1005100088437B4916390860081F00687B490840FA
:1005200077491A39086008460068794908437449D0
:100530001A3908607248123800687449C943084380
:100540006F491239086048F208006E49088308466E
:10055000406848F2080188436A49486008460068D4
:1005600020F0C00008600846806840F0C000886045
:100570000846006820F0404008600846806840F067
:10058000404088600846006840F040000860084627
:10059000006840F080400860704710B50A2001F004
:1005A0008FF81120FFF7ACFE0A2001F089F8362001
:1005B000FFF7A6FE0020FFF7B8FE3A20FFF7A0FEE7
:1005C0000520FFF7B2FEB220FFF79AFE0C20FFF7DE
:1005D000ACFE0C20FFF7A9FE0020FFF7A6FE33209B
:1005E000FFF7A3FE3320FFF7A0FEB720FFF788FE3A
:1005F0003520FFF79AFEBB20FFF782FE3520FFF77C
:1006000094FEC020FFF77CFE2C20FFF78EFEC22058
:10061000FFF776FE0120FFF788FEC320FFF770FE8C
:100620001320FFF782FEC420FFF76AFE2020FFF7A9
:100630007CFEC620FFF764FE0F20FFF776FECA207F
:10064000FFF75EFE0F20FFF770FEC820FFF758FE91
:100650000820FFF76AFE5520FFF752FE9020FFF7B3
:1006600064FED020FFF74CFEA420FFF75EFEA12021
:10067000FFF75BFEE020FFF743FE7020FFF755FE1B
:100680000420FFF752FE0820FFF74FFE0920FFF776
:100690004CFE0920FFF749FE0520FFF746FE2A2001
:1006A000FFF743FE3320FFF740FE4120FFF73DFEFA
:1006B0000720FFF73AFE1320FFF737FE1320FFF75E
:1006C00034FE2920FFF731FE2F20FFF72EFEE12018
:1006D000FFF716FE7020FFF728FE0320FFF725FE28
:1006E0000920FFF722FE0A20FFF71FFE0920FFF76F
:1006F0001CFE0620FFF719FE2B20FFF716FE09E06F
:100700001A040240000002402A00FF000000CFFF50
:10071000555510003420FFF708FE4120FFF705FE75
:100720000720FFF702FE1220FFF7FFFD1420FFF75E
:10073000FCFD2820FFF7F9FD2E20FFF7F6FD212014
:10074000FFF7DEFD2920FFF7DBFD10BDF94800684B
:1007500040F00100F7490860F748406820F48070D5
:10076000F54948600846006820F4403008600846B3
:10077000006840F4003008600846406A20F00F012D
:10078000ED484162406A40F00101EB4841620020BF
:10079000EA4908856420C862002048630846008B47
:1007A00040F0600008830846008C40F00100088497
:1007B000E2484430008840F40040A1F84400084674
:1007C000008840F0010008800846808A40F001005F
:1007D00088827047D9494863704710B5FFF78EFE8D
:1007E000FFF7B4FFFFF7D9FE0020FFF735FE282002
:1007F000FFF7F0FF4FF6E070D14908800020D149A3
:10080000088010BD30B54FF48064CF4D2C8064015A
:10081000C94D6C83CD4CCC4DAD1E2C600824C64D0B
:100820006C832C8324032C834FF47F04C64DAD1EB0
:100830002C600824C04D6C832C8340F47F04C24D8F
:10084000AD1E2C600824BC4D6C832C834FF47F04B8
:10085000BD4DAD1E2C600824B74D6C832C83541EF7
:1008600044F47F04B84DAD1E2C600824B24D6C8357
:100870002C8324036C83B54C641CB34DAD1E2C60DB
:100880000824AD4D6C832C8324032C834FF47F0408
:10089000AD4DAD1E2C600824A74D6C832C8341F414
:1008A0007F04A94DAD1E2C600824A34D6C832C83BE
:1008B0004FF47F04A44DAD1E2C6008249E4D6C8324
:1008C0002C835C1E44F47F049F4DAD1E2C600824D5
:1008D000994D6C832C8324036C839C4CA41C9A4DEF
:1008E000AD1E2C600824944D6C832C8324032C8330
:1008F0006411954DAD1E2C8030BD70B505460E4679
:100900001446F1B2E8B2FFF72FFD4FF480608E4934
:1009100008802012FFF709FDE0B2FFF706FD4FF453
:1009200080608949891E088070BD10B54FF48063CE
:10093000854C23805B01804C6383844B824CA41ED6
:10094000236008237C4C638323831B0323834FF49E
:100950007F037D4CA41E23600823774C638323838D
:1009600040F47F03784CA41E23600823724C6383F9
:1009700023834FF47F03744CA41E236008236E4C22
:1009800063832383714BC5336F4CA41E23600823FC
:10099000694C638323831B0363836C4B5B1C6A4C2E
:1009A000A41E23600823644C638323831B032383D7
:1009B0004FF47F03644CA41E236008235E4C6383C2
:1009C000238341F47F03604CA41E236008235A4C08
:1009D000638323834FF47F035B4CA41E23600823AF
:1009E000554C63832383594BC533574CA41E236056
:1009F0000823514C638323831B036383534B9B1C4A
:100A0000514CA41E236008234B4C638323831B0398
:100A100023834FF47F0343EA22234B4CA41E23601D
:100A20000823454C63832383D3B243F47F03464CAE
:100A3000A41E23600823404C63832383DB01424CC4
:100A4000A41E238010BD2DE9F84F04460D4616461E
:100A50001F46DDF82880311B7A1B01FB02F000EBFA
:100A6000D071491000913B46324629462046FFF797
:100A7000C9FE4FF47F0040EA182A08F0FF0040F456
:100A80007F0B4FF480603049088040012A49088379
:100A90004FF000091EE02C48801EC0F800A008207E
:100AA0002549488308832848801EC0F800B00820E4
:100AB000488308832448801EC0F800A0082048838B
:100AC00008832148801EC0F800B0082048830883AE
:100AD00009F1010900988145DDD34FF480601A497E
:100AE000891E0880BDE8F88F2DE9F04780468946C9
:100AF00015469A463620FFF703FCBAF1300F02D0B4
:100B00002020FFF712FCBAF1100F60D1A5F12000F0
:100B1000C5B208F10800C3B209F11000C2B24146E3
:100B20004846FFF76FFE4FF48060074908800024B5
:100B300046E000004438024000000240000001404E
:100B400000000020020000201A0402402A00FF00DA
:100B5000B14800EB0510065D00272EE006F080008E
:100B6000A0B1AE48407840F47F00AD49086008204D
:100B7000AC4948830883A948007840F47F00A8491D
:100B800008600820A7494883088313E0A6484078F6
:100B900040F47F00A24908600820A24948830883E6
:100BA000A148007840F47F009D49086008209D49D5
:100BB000488308837006060E7F1C082FCED3641C62
:100BC000102CC5D34FF480609549088004E1BAF138
:100BD000180F54D1A5F12000C5B208F10C00C3B222
:100BE00009F11800C2B241464846FFF70BFE4FF428
:100BF00080608B49891C0880002439E005EBC50022
:100C00008A4901EB8000065D00272EE006F0800097
:100C1000A0B18248407840F47F00814908600820F4
:100C20008049488308837D48007840F47F007C49F0
:100C3000086008207B494883088313E07A4840789D
:100C400040F47F007649086008207649488308838D
:100C50007548007840F47F007149086008207149A8
:100C6000488308837006060E7F1C082FCED3641CB1
:100C7000242CC3D34FF4806069490880ACE0BAF1FA
:100C8000200F52D1A5F12000C5B208F11000C3B267
:100C900009F12000C2B241464846FFF7B3FD4FF4C8
:100CA00080605F49891C0880002437E0604800EBC1
:100CB0008510065D00272EE006F08000A0B15748A1
:100CC000407840F47F005649086008205549488321
:100CD00008835248007840F47F005149086008209A
:100CE00050494883088313E04F48407840F47F0020
:100CF0004B49086008204B49488308834A480078DC
:100D000040F47F004649086008204649488308832C
:100D10007006060E7F1C082FCED3641C402CC5D352
:100D20004FF480603E49088056E0BAF1300F53D14D
:100D3000A5F12000C5B209F12300C3B208F11800E3
:100D4000C2B249464046FFF75DFD4FF4806034492A
:100D5000891C0880002439E005EBC500354901EB0A
:100D60000010065D00272EE006F08000A0B12B48A1
:100D7000407840F47F002A490860082029494883C8
:100D800008832648007840F47F0025490860082041
:100D900024494883088313E02348407840F47F00C7
:100DA0001F49086008201F49488308831E480078AF
:100DB00040F47F001A49086008201A4948830883D4
:100DC0007006060E7F1C082FCED3641C692CC3D37B
:100DD0004FF48060124908803620FFF791FA002016
:100DE000FFF7A3FABDE8F087F0B506460F461446B4
:100DF0001D460CE014F8012B2B4639463046FFF710
:100E000073FE284605EBD07106EB6101CEB2207867
:100E10000028EFD1F0BD00002832000800000020BB
:100E2000180402400000024002000020744500083F
:100E3000D052000890610008D848006840F40010C3
:100E4000D6490860D648006840F44070D44908602C
:100E5000081F006820F47020091F08600846006819
:100E600040F4202008600846406A20F0FF01CC488A
:100E7000001F4162406A40F04401C948001F4162BE
:100E80004FF40040C7490880002008803020091D29
:100E900008804CF20500C3491C3108800520091D5B
:100EA00008800120BF490880704730B502464FF4E2
:100EB0007A73BC4C1834248804F00204002C3CD112
:100EC000B84C248844F48074B64D2C8000BFB54CD7
:100ED0001434248804F00104002CF8D0B14C1034F0
:100EE000228019E0AF4C14342188241D248801F09D
:100EF0000204022C01D101200FE001F48064B4F55A
:100F0000806F05D10024A74D14352C80002004E00B
:100F10005B1E0BB9002000E0E4E700BFA14C248871
:100F200044F400749F4D2C8000BF9E4C18342488DC
:100F300004F00204022CF8D000E0002030BD10B50F
:100F400000BF984B18331B8803F00203022BF8D024
:100F5000944B1B8843F48073924C238000BF914BC9
:100F600014331B8803F00103002BF8D08D4B103392
:100F7000188000BF8B4B14331B8803F00203002B37
:100F8000F8D0884B18331B88864B1033198000BF6C
:100F9000844B14331B8803F08403842BF8D1814BDA
:100FA00010331A8000BF7F4B14331B8803F0840377
:100FB000842BF8D17B4B1B8843F40073794C23803E
:100FC00010BD30B500BF774C1834248804F00204FB
:100FD000022CF8D0734C248844F48074714D2C801A
:100FE00000BF704C1434248804F00104002CF8D0A5
:100FF0006C4C1034208000BF6A4C1434248804F0F8
:101000000204002CF8D0674C18342488654C103446
:10101000218000BF634C1434248804F08404842CA1
:10102000F8D10CE000BF5F4C1434248804F0800435
:10103000802CF8D114785B4D10352C80521C1C008C
:10104000A3F10103EED100BF564C1434248804F000
:101050008404842CF8D1534C248844F40074514DFA
:101060002C8030BD00BF4F4A1832128802F00202B5
:10107000022AF8D04B4A128842F48072494B1A80F7
:1010800000BF484A1432128802F00102002AF8D048
:10109000444A1032108000BF424A1432128802F0D3
:1010A0000202002AF8D03F4A183212883D4A103214
:1010B000118000BF3B4A1432128802F08402842A55
:1010C000F8D1384A128842F48072364B1A8000BF39
:1010D000344A1432128802F00102002AF8D040F09B
:1010E0000102304B10331A8000BF2E4A143212888E
:1010F00002F00202002AF8D02A4A183212887047F9
:1011000030B504460D4629462046FFF7ABFF25487B
:10111000008820F48060234908800846008840F455
:101120000070088000BF1F481430008800F04000A5
:101130000028F8D01B4810300088C0B230BDF0B590
:1011400006460F4614461D4639463046FFF78AFFCD
:101150001448008840F480601249088018E055B9AE
:101160001048008820F480600E49088008460088F6
:1011700040F40070088000BF0A481430008800F076
:1011800040000028F8D00748103000882070641C08
:101190002800A5F10105E2D1F0BD00004038024071
:1011A000040402400054004010B53020FFF77DFEDB
:1011B00008B9012010BD0020FCE77648006840F423
:1011C00080407449086073481038006840F400108B
:1011D00070491039086070486E49443108606D48A4
:1011E0004038006840F080606A49403908606B48C8
:1011F000006820F07F40694908606848083000684E
:1012000040F07F406549083108606448006840F05C
:101210002A4062490860081D006820F47040091DDA
:101220000860081F406A81B25C484162406A5C49BC
:1012300008435A49486200BF56484038006800F0E9
:1012400000600028F8D040F20B10564908804FF497
:101250002060091F0880022052491C3908804FF481
:1012600010605149088001204F4918390880022038
:101270004D4908804C4810384C4908664C4848662F
:1012800000F5006088660815C8650520C8664948ED
:1012900088654448143888674748C86700F5006087
:1012A0004249803108600815404948670520C1F867
:1012B0008400424808674FF0E020D0F8000140F475
:1012C00080404FF0E021C1F8000160213C480170EE
:1012D0003448001F008840F480603249091F0880AC
:1012E0003148008840F480602F4908802F48806D85
:1012F00040F001002D4988650846006F40F001006C
:101300000867704710B52948006800F00060B0F128
:10131000006F13D12548806D00F40020B0F5002F38
:1013200006D14FF4806224492148FEF7E3FF05E02F
:101330004FF4806223492448FEF7DCFF1B48806895
:1013400040F074601949886010BD70B53025FFF712
:1013500034FF002211463020FFF7F1FD0122114633
:101360003020FFF7ECFD012000F0AAF900240AE08C
:10137000164800EB44004278144810F8141030204E
:10138000FFF7DDFD641CAC42F2D300210A48FEF7F2
:101390009AFF70BD40380240006A003000040240ED
:1013A00000005556203800401C34004000600240C8
:1013B00024000020302C060624100020602C05009C
:1013C0000EE400E02418002024080020C082000859
:1013D0000948804709480047FEE7FEE7FEE7FEE7C9
:1013E000FEE7FEE7FEE7FEE7FEE7FEE70448054905
:1013F000034A054B70470000E514000895010008FA
:101400005021002050250020502100200CB5002044
:10141000019000907548006840F48030734908607E
:1014200000BF7248006800F4003000900198401C32
:101430000190009818B90198B0F5A04FF1D16B4810
:10144000006800F4003010B10120009001E000209D
:1014500000900098012844D164484030006840F072
:1014600080506249403108606148006840F4404063
:101470005F4908605D48083000685C4908310860D1
:101480000846006808600846006840F4805008601C
:101490005848091F0860081F006840F08070091F45
:1014A000086000BF5148006800F000700028F9D0C3
:1014B00040F20270504908604C480830006820F043
:1014C00003004A49083108600846006840F00200FD
:1014D000086000BF45480830006800F00C0008288C
:1014E000F8D10CBD10B54548006840F47000434980
:1014F00008603E48006840F001003C490860002058
:101500003A4908310860394800683D490840374980
:1015100008603C48091D0860081F006820F480200E
:10152000091F0860002031490C310860FFF76EFF89
:101530004FF0006031498039086010BD70B500205F
:101540000022022300240221284D08352D6805F0D1
:101550000C0020B1042806D0082834D107E02A4D19
:101560002A4E356033E02A4D284E35602FE01F4D5E
:101570002D1D2D68C5F380541C4D2D1D2D6805F0C3
:101580003F0154B1224DB5FBF1F5184E361D3668BA
:10159000C6F3881605FB06F209E01B4DB5FBF1F515
:1015A000124E361D3668C6F3881605FB06F20F4D3F
:1015B0002D1D2D68C5F301456D1C6B00B2FBF3F5C5
:1015C000124E356003E0104D104E356000BF00BF75
:1015D000064D08352D68C5F303150E4E705D0B4D95
:1015E0002D68C540094E356070BD000000380240CE
:1015F000007000400C604108003C024088ED00E0B3
:10160000FFFFF6FE103000240024F4000400002048
:1016100000127A00080000204FF0E021096921F053
:1016200004014FF0E0221161C21700EB5272C2F3C5
:10163000C702314B1A701946097801EB4102C2EB1F
:10164000C1114FF6FF7202EAC1012C4A11807047A6
:101650000146294A12784A434FF0E0235A6100229A
:101660009A6101221A6100BF4FF0E022106900F078
:1016700001021AB100F48032002AF5D000224FF0A6
:10168000E0231A619A61704701461C4A12884A4356
:101690004FF0E0235A6100229A6101221A6100BFD3
:1016A0004FF0E022106900F001021AB100F480321C
:1016B000002AF5D000224FF0E0231A619A617047AA
:1016C00070B504464FF4077094FBF0F0C6B24FF4C7
:1016D000077094FBF0F100FB114085B205E04FF478
:1016E0000770FFF7D1FF701EC6B2002EF7D115B1FB
:1016F0002846FFF7C9FF70BD180000201A0000201F
:101700004A0A520202433E4B1A60704701460723C1
:1017100023EA010212023A4B1B1D18684FF6FF0321
:101720001840384B18431043354B1B1D1860704749
:101730002DE9F0410746884614461D462846FFF726
:10174000E5FFC5F1040007FA00F60F20284100EA82
:101750000800064306F00F06E21704EBD2625211AE
:10176000920002F1E022D2F800212146E31704EBB7
:10177000D3635B11A4EB431C012303FA0CF31A435C
:101780002046E31704EBD3635B119B0003F1E023D6
:10179000C3F800211C48005D40EA06101A490855AC
:1017A000BDE8F08130BF704772B6704762B67047CF
:1017B00000B513480830006840F0040010490831B3
:1017C00008601248006840F08050104908601048D6
:1017D000406840F480700E4948600846006840F058
:1017E000040008600846006840F002000860FFF747
:1017F000D9FF00BD0348001D0149091D086070475D
:1018000008ED00E00000FA0500E400E04038024086
:1018100000700040704700BFFEE700BFFEE700BF5A
:10182000FEE700BFFEE77047704770477047000053
:1018300000BF704700BF454A128802F04002002AEC
:10184000F9D0C2B2414B1B1D1A807047404909882C
:1018500001F0200109B33E498988C8B23D49098891
:1018600001F40041C9B93B49098801F4804161B1E3
:101870000A2803D00021374A118020E03549098821
:1018800041F40041334A118019E00D2806D1314955
:10189000098841F480412F4A118010E02D490988C0
:1018A000C1F30D012C4A50542A490988491C294A80
:1018B000118011460988C72901DD00211180704778
:1018C00070B505460C462548006840F010002349D5
:1018D0000860B5FBF4F01E4908810820888108469D
:1018E000808940F0040088810846808940F020000B
:1018F00088810223252203210846FFF719FF184893
:10190000006820F47010164908600846806840F4AA
:10191000701088600846006840F42010086008468F
:10192000406820F4C06048600846406A20F47F6147
:101930000B484162406A40F4EE6109484162044844
:10194000808940F400500249888170BD0044004005
:1019500000100140200000202420002044380240D4
:1019600000000240704770477047704770477546E7
:1019700000F028F8AE4605006946534620F00700FF
:10198000854618B020B5FFF731FDBDE820404FF087
:1019900000064FF000074FF000084FF0000B21F059
:1019A0000701AC46ACE8C009ACE8C009ACE8C00926
:1019B000ACE8C0098D4670470446AFF3008020466E
:1019C000FEF731FC00487047EC2000204FF04070DB
:1019D000E1EE100A704700000000803F3FB9FDBFF4
:1019E0000000803FF64EFF3FD0A97EBF0000803F41
:1019F0008FD6FCBF0000803FCB13FE3F73337CBF0C
:101A00000000803FC4F8F8BF0000803F0D22FD3F7A
:101A1000F84F7ABF0000803F1D12CCBF0000803F0E
:101A2000929EFC3F054979BF000093002701BA014F
:101A30004D02E002730307049A042D05C005530606
:101A4000E60678070B089E083009C309550AE80A1C
:101A50007A0B0C0C9E0C300DC20D530EE50E760F5A
:101A6000071098102911BA114A12DB126B13FB13DD
:101A70008A141A15A9153916C8165617E5177318BA
:101A800001198F191C1AAA1A371BC41B501CDC1C05
:101A9000681DF41D7F1E0B1F951F2020AA203421D6
:101AA000BD214722D0225823E0236824F024772543
:101AB000FE2584260A27902715289A281F29A3295E
:101AC000272AAA2A2D2BAF2B322CB32C342DB52D3F
:101AD000362EB52E352FB42F3230B1302E31AB31FA
:101AE0002832A43220339B33163490340A358335A0
:101AF000FB357436EB366237D9374F38C43839394D
:101B0000AE39213A953A073B793BEB3B5C3CCC3C08
:101B10003C3DAB3D1A3E883EF53E623FCE3F3A40EB
:101B2000A5400F417941E2414B42B2421A43804302
:101B3000E6434B44B04414457745D9453B469C4663
:101B4000FD465D47BC471A487848D54832498D491B
:101B5000E849434A9C4AF54A4D4BA44BFB4B514C38
:101B6000A64CFA4C4E4DA14DF34D454E954EE54ECB
:101B7000344F834FD14F1D506950B550FF504951DC
:101B80009251DA5122526852AE52F35237537B537C
:101B9000BD53FF5340548054C054FE543C557955B6
:101BA000B555F0552B5664569D56D5560C57425791
:101BB0007857AC57E057135845587658A758D65819
:101BC000055932595F598B59B759E1590A5A335A55
:101BD0005B5A815AA75ACD5AF15A145B375B585B4E
:101BE000795B995BB85BD65BF35B0F5C2B5C455C08
:101BF0005F5C775C8F5CA65CBC5CD15CE65CF95C8E
:101C00000C5D1D5D2E5D3E5D4C5D5A5D685D745DD5
:101C10007F5D895D935D9B5DA35DAA5DB05DB55DF4
:101C2000B95DBC5DBE5DC05DC05DC05DBE5DBC5DDF
:101C3000B95DB55DB05DAA5DA35D9B5D935D895D9A
:101C40007F5D745D685D5A5D4C5D3E5D2E5D1D5D22
:101C50000C5DF95CE65CD15CBC5CA65C8F5C775C7F
:101C60005F5C455C2B5C0F5CF35BD65BB85B995BA0
:101C7000795B585B375B145BF15ACD5AA75A815A8E
:101C80005B5A335A0A5AE159B7598B595F5932593D
:101C90000559D658A758765845581358E057AC57A9
:101CA000785742570C57D5569D5664562B56F055CB
:101CB000B55579553C55FE54C05480544054FF539B
:101CC000BD537B533753F352AE5268522252DA510E
:101CD00092514951FF50B55069501D50D14F834F1B
:101CE000344FE54E954E454EF34DA14D4E4DFA4CB9
:101CF000A64C514CFB4BA44B4D4BF54A9C4A434AD6
:101D0000E8498D493249D54878481A48BC475D476B
:101D1000FD469C463B46D94577451445B0444B4467
:101D2000E64380431A43B2424B42E24179410F41BC
:101D3000A5403A40CE3F623FF53E883E1A3EAB3D5D
:101D40003C3DCC3C5C3CEB3B793B073B953A213A34
:101D5000AE393939C4384F38D9376237EB36743633
:101D6000FB3583350A35903416349B332033A43247
:101D70002832AB312E31B1303230B42F352FB52E61
:101D8000362EB52D342DB32C322CAF2B2D2BAA2A69
:101D9000272AA3291F299A28152890270A2784264D
:101DA000FE257725F0246824E0235823D0224722FB
:101DB000BD213421AA202020951F0B1F7F1EF41D5A
:101DC000681DDC1C501CC41B371BAA1A1C1A8F1957
:101DD00001197318E5175617C8163916A9151A15DB
:101DE0008A14FB136B13DB124A12BA1129119810D3
:101DF0000710760FE50E530EC20D300D9E0C0C0C25
:101E00007A0BE80A550AC30930099E080B087807BF
:101E1000E6065306C0052D059A0407047303E00285
:101E20004D02BA012701930000006DFFD9FE46FE66
:101E3000B3FD20FD8DFCF9FB66FBD3FA40FAADF94A
:101E40001AF988F8F5F762F7D0F63DF6ABF518F514
:101E500086F4F4F362F3D0F23EF2ADF11BF18AF0B6
:101E6000F9EF68EFD7EE46EEB6ED25ED95EC05EC13
:101E700076EBE6EA57EAC7E938E9AAE81BE88DE716
:101E8000FFE671E6E4E556E5C9E43CE4B0E324E3AB
:101E900098E20CE281E1F5E06BE0E0DF56DFCCDEBA
:101EA00043DEB9DD30DDA8DC20DC98DB10DB89DA2D
:101EB00002DA7CD9F6D870D8EBD766D7E1D65DD6F2
:101EC000D9D556D5D3D451D4CED34DD3CCD24BD2F1
:101ED000CAD14BD1CBD04CD0CECF4FCFD2CE55CE16
:101EE000D8CD5CCDE0CC65CCEACB70CBF6CA7DCA50
:101EF00005CA8CC915C99EC827C8B1C73CC7C7C683
:101F000052C6DFC56BC5F9C487C415C4A4C334C3A6
:101F1000C4C255C2E6C178C10BC19EC032C0C6BFA3
:101F20005BBFF1BE87BE1EBEB5BD4EBDE6BC80BC6C
:101F30001ABCB5BB50BBECBA89BA27BAC5B964B9EB
:101F400003B9A3B844B8E6B788B72BB7CEB673B613
:101F500018B6BDB564B50BB5B3B45CB405B4AFB3D6
:101F60005AB306B3B2B25FB20DB2BBB16BB11BB123
:101F7000CCB07DB02FB0E3AF97AF4BAF01AFB7AEF2
:101F80006EAE26AEDEAD98AD52AD0DADC9AC85AC32
:101F900043AC01ACC0AB80AB40AB02ABC4AA87AAD8
:101FA0004BAA10AAD5A99CA963A92BA9F4A8BEA8DD
:101FB00088A854A820A8EDA7BBA78AA759A72AA735
:101FC000FBA6CEA6A1A675A649A61FA6F6A5CDA5D9
:101FD000A5A57FA559A533A50FA5ECA4C9A4A8A4C0
:101FE00087A467A448A42AA40DA4F1A3D5A3BBA3E6
:101FF000A1A389A371A35AA344A32FA31AA307A340
:10200000F4A2E3A2D2A2C2A2B4A2A6A298A28CA2D7
:1020100081A277A26DA265A25DA256A250A24BA298
:1020200047A244A242A240A240A240A242A244A28D
:1020300047A24BA250A256A25DA265A26DA277A2B2
:1020400081A28CA298A2A6A2B4A2C2A2D2A2E3A20A
:10205000F4A207A31AA32FA344A35AA371A389A38D
:10206000A1A3BBA3D5A3F1A30DA42AA448A467A44C
:1020700087A4A8A4C9A4ECA40FA533A559A57FA53E
:10208000A5A5CDA5F6A51FA649A675A6A1A6CEA66F
:10209000FBA62AA759A78AA7BBA7EDA720A854A8E3
:1020A00088A8BEA8F4A82BA963A99CA9D5A910AAA1
:1020B0004BAA87AAC4AA02AB40AB80ABC0AB01ACB1
:1020C00043AC85ACC9AC0DAD52AD98ADDEAD26AE1E
:1020D0006EAEB7AE01AF4BAF97AFE3AF2FB07DB0F1
:1020E000CCB01BB16BB1BBB10DB25FB2B2B206B333
:1020F0005AB3AFB305B45CB4B3B40BB564B5BDB5F6
:1021000018B673B6CEB62BB788B7E6B744B8A3B83F
:1021100003B964B9C5B927BA89BAECBA50BBB5BB23
:102120001ABC80BCE6BC4EBDB5BD1EBE87BEF1BEAE
:102130005BBFC6BF32C09EC00BC178C1E6C155C2ED
:10214000C4C234C3A4C315C487C4F9C46BC5DFC5F6
:1021500052C6C7C63CC7B1C727C89EC815C98CC9D7
:1021600005CA7DCAF6CA70CBEACB65CCE0CC5CCDA3
:10217000D8CD55CED2CE4FCFCECF4CD0CBD04BD169
:10218000CAD14BD2CCD24DD3CED351D4D3D456D541
:10219000D9D55DD6E1D666D7EBD770D8F6D87CD93D
:1021A00002DA89DA10DB98DB20DCA8DC30DDB9DD6F
:1021B00043DECCDE56DFE0DF6BE0F5E081E10CE2F0
:1021C00098E224E3B0E33CE4C9E456E5E4E571E6D3
:1021D000FFE68DE71BE8AAE838E9C7E957EAE6EA2F
:1021E00076EB05EC95EC25EDB6ED46EED7EE68EF17
:1021F000F9EF8AF01BF1ADF13EF2D0F262F3F4F3A5
:1022000086F418F5ABF53DF6D0F662F7F5F788F8E9
:102210001AF9ADF940FAD3FA66FBF9FB8DFC20FD03
:10222000B3FD46FED9FE6DFF000000009B433E2B30
:10223000AF42BE2BE0B00E2C063F3E2C56CB6D2C91
:10224000AEAA8E2C536EA62C5A30BE2C8EF0D52CF6
:10225000B2AEED2C45B5022DEF910E2D396D1A2D34
:102260000647262D371F322DB0F53D2D5CCA492D6E
:102270000C9D552DB66D612D2B3C6D2D5F08792D74
:102280001269822DB84C882D0A2F8E2DFC0F942DAB
:1022900083EF992D8DCD9F2D0FAAA52DF884AB2D01
:1022A000375EB12DC535B72D8C0BBD2D80DFC22D0E
:1022B0008FB1C82DB581CE2DDF4FD42DF71BDA2D70
:1022C000F7E5DF2DD3ADE52D7573EB2DD036F12D70
:1022D000DAF7F62D80B6FC2D5C39012E3B16042E64
:1022E000D1F1062E1CCC092E13A50C2EB07C0F2E7E
:1022F000E752122EB927152E1BFB172E02CD1A2ED0
:102300006D9D1D2E566C202EB139232E7905262E5B
:10231000A7CF282E33982B2E1B5F2E2E5224312E22
:10232000D6E7332E9EA9362EA269392EDE273C2E03
:1023300047E43E2EDB9E412E9257442E630E472EDD
:102340004AC3492E3E764C2E3A274F2E37D6512E71
:102350002E83542E1B2E572EF3D6592EB07D5C2E75
:102360004E225F2EC7C4612E1365642E2A03672E8A
:10237000079F692EA3386C2EF9CF6E2E0265712E41
:10238000B8F7732E1288762E0D16792EA2A17B2E09
:10239000CB2A7E2EC058802EDD9A812EBADB822E6B
:1023A000551B842EAA59852EB696862E75D2872E59
:1023B000E60C892E04468A2ECD7D8B2E3FB48C2EC2
:1023C00055E98D2E0C1D8F2E634F902E5580912E2A
:1023D000E1AF922E03DE932EB70A952EFC35962E92
:1023E000CF5F972E2C88982E10AF992E7BD49A2EE3
:1023F00065F89B2ED01A9D2EB83B9E2E175B9F2E04
:10240000EF78A02E3A95A12EF6AFA22E22C9A32EC8
:10241000B9E0A42EB9F6A52E200BA72EEB1DA82EF1
:10242000172FA92EA13EAA2E874CAB2EC658AC2E34
:102430005E63AD2E476CAE2E8473AF2E0F79B02E37
:10244000E77CB12E097FB22E737FB32E217EB42E8E
:10245000127BB52E4476B62EB36FB72E5E67B82EBC
:10246000415DB92E5C51BA2EAA43BB2E2B34BC2E33
:10247000DA22BD2EB80FBE2EC0FABE2EF3E3BF2E59
:1024800049CBC02EC6B0C12E6494C22E2276C32E74
:10249000FF55C42EF633C52E0610C62E2FEAC62EC3
:1024A0006BC2C72EBC98C82E1E6DC92E8E3FCA2E79
:1024B0000C10CB2E94DECB2E26ABCC2EBE75CD2EA3
:1024C0005B3ECE2EFD04CF2E9DC9CF2E408CD02E4C
:1024D000DE4CD12E770BD22E0BC8D22E9882D32E63
:1024E000193BD42E8FF1D42EF9A5D52E5258D62EC5
:1024F0009A08D72ED0B6D72EF262D82EFF0CD92E3E
:10250000F4B4D92ECF5ADA2E8FFEDA2E33A0DB2E7A
:10251000B73FDC2E1EDDDC2E6178DD2E8F11DE2E26
:102520008AA8DE2E623DDF2E17D0DF2EA860E02EB7
:1025300006EFE02E337BE12E4A05E22E218DE22EBE
:10254000C612E32E4896E32E9717E42EB496E42E97
:102550009113E52E4A8EE52EC306E62EFB7CE62E71
:1025600001F1E62ED562E72E69D2E72EBC3FE82EB8
:10257000DDAAE82EBE13E92E5E7AE92EAFDEE92E43
:10258000CF40EA2EADA0EA2E4CFEEA2E9B59EB2E50
:10259000AAB2EB2E7909EC2EF85DEC2E38B0EC2EB9
:1025A0002800ED2ED84DED2E3999ED2E4BE2ED2E73
:1025B0001D29EE2EA06DEE2ED4AFEE2EB9EFEE2E2D
:1025C0004F2DEF2E9668EF2E9DA1EF2E47D8EF2EC0
:1025D000A10CF02EAD3EF02E796EF02ED89BF02E91
:1025E000F7C6F02EB9EFF02E3B16F12E5F3AF12E22
:1025F000265CF12E9E7BF12EC798F12EA1B3F12E11
:102600001FCCF12E4DE2F12E1DF6F12E9F07F22E7A
:10261000D316F22EA823F22E2F2EF22E5936F22E9A
:10262000253CF22EB13FF22ED240F22EB13FF22ED7
:10263000253CF22E5936F22E2F2EF22EA823F22E02
:10264000D316F22E9F07F22E1DF6F12E4DE2F12E3B
:102650001FCCF12EA1B3F12EC798F12E9E7BF12E47
:10266000265CF12E5F3AF12E3B16F12EB9EFF02EDB
:10267000F7C6F02ED89BF02E796EF02EAD3EF02EE0
:10268000A10CF02E47D8EF2E9DA1EF2E9668EF2ECD
:102690004F2DEF2EB9EFEE2ED4AFEE2EA06DEE2E15
:1026A0001D29EE2E4BE2ED2E3999ED2ED84DED2E53
:1026B0002800ED2E38B0EC2EF85DEC2E7909EC2ECA
:1026C000AAB2EB2E9B59EB2E4CFEEA2EADA0EA2EC1
:1026D000CF40EA2EAFDEE92E5E7AE92EBE13E92E58
:1026E000DDAAE82EBC3FE82E69D2E72ED562E72EA0
:1026F00001F1E62EFB7CE62EC306E62E4A8EE52E81
:102700009113E52EB496E42E9717E42E4896E32E07
:10271000C612E32E218DE22E4A05E22E337BE12EF6
:1027200006EFE02EA860E02E17D0DF2E623DDF2EF0
:102730008AA8DE2E8F11DE2E6178DD2E1EDDDC2EC6
:10274000B73FDC2E33A0DB2E8FFEDA2ECF5ADA2EE7
:10275000F4B4D92EFF0CD92EF262D82ED0B6D72ED3
:102760009A08D72E5258D62EF9A5D52E8FF1D42EF1
:10277000193BD42E9882D32E0BC8D22E770BD22E93
:10278000DE4CD12E408CD02E9DC9CF2EFD04CF2EF5
:102790005B3ECE2EBE75CD2E26ABCC2E94DECB2E40
:1027A0000C10CB2E8E3FCA2E1E6DC92EBC98C82E83
:1027B0006BC2C72E2FEAC62E0610C62EF633C52EC4
:1027C000FF55C42E2276C32E6494C22EC6B0C12EED
:1027D00049CBC02EF3E3BF2EC0FABE2EB80FBE2EDB
:1027E000DA22BD2E2B34BC2EAA43BB2E5C51BA2E4E
:1027F000415DB92E5E67B82EB36FB72E4476B62E04
:10280000127BB52E217EB42E737FB32E097FB22E9C
:10281000E77CB12E0F79B02E8473AF2E476CAE2EAD
:102820005E63AD2EC658AC2E874CAB2EA13EAA2EB1
:10283000172FA92EEB1DA82E200BA72EB9F6A52E1B
:10284000B9E0A42E22C9A32EF6AFA22E3A95A12E4E
:10285000EF78A02E175B9F2EB83B9E2ED01A9D2E90
:1028600065F89B2E7BD49A2E10AF992E2C88982E2B
:10287000CF5F972EFC35962EB70A952E03DE932E4A
:10288000E1AF922E5580912E634F902E0C1D8F2E0E
:1028900055E98D2E3FB48C2ECD7D8B2E04468A2E8D
:1028A000E60C892E75D2872EB696862EAA59852ECD
:1028B000551B842EBADB822EDD9A812EC058802EC5
:1028C000CB2A7E2EA2A17B2E0D16792E1288762E73
:1028D000B8F7732E0265712EF9CF6E2EA3386C2EC9
:1028E000079F692E2A03672E1365642EC7C4612EC5
:1028F0004E225F2EB07D5C2EF3D6592E1B2E572E06
:102900002E83542E37D6512E3A274F2E3E764C2EFC
:102910004AC3492E630E472E9257442EDB9E412E0A
:1029200047E43E2EDE273C2EA269392E9EA9362E84
:10293000D6E7332E5224312E1B5F2E2E33982B2EAA
:10294000A7CF282E7905262EB139232E566C202E9E
:102950006D9D1D2E02CD1A2E1BFB172EB927152E8D
:10296000E752122EB07C0F2E13A50C2E1CCC092E74
:10297000D1F1062E3B16042E5C39012E80B6FC2DBB
:10298000DAF7F62DD036F12D7573EB2DD3ADE52D9D
:10299000F7E5DF2DF71BDA2DDF4FD42DB581CE2DD6
:1029A0008FB1C82D80DFC22D8C0BBD2DC535B72D45
:1029B000375EB12DF884AB2D0FAAA52D8DCD9F2D9F
:1029C00083EF992DFC0F942D0A2F8E2DB84C882D56
:1029D0001269822D5F08792D2B3C6D2DB66D612D0E
:1029E0000C9D552D5CCA492DB0F53D2D371F322D5C
:1029F0000647262D396D1A2DEF910E2D45B5022D66
:102A0000B2AEED2C8EF0D52C5A30BE2C536EA62CC7
:102A1000AEAA8E2C56CB6D2C063F3E2CE0B00E2C71
:102A2000AF42BE2B9B433E2BB6722F959B433EABD2
:102A3000AF42BEABE0B00EAC063F3EAC56CB6DAC89
:102A4000AEAA8EAC536EA6AC5A30BEAC8EF0D5ACEE
:102A5000B2AEEDAC45B502ADEF910EAD396D1AAD2C
:102A6000064726AD371F32ADB0F53DAD5CCA49AD66
:102A70000C9D55ADB66D61AD2B3C6DAD5F0879AD6C
:102A8000126982ADB84C88AD0A2F8EADFC0F94ADA3
:102A900083EF99AD8DCD9FAD0FAAA5ADF884ABADF9
:102AA000375EB1ADC535B7AD8C0BBDAD80DFC2AD06
:102AB0008FB1C8ADB581CEADDF4FD4ADF71BDAAD68
:102AC000F7E5DFADD3ADE5AD7573EBADD036F1AD68
:102AD000DAF7F6AD80B6FCAD5C3901AE3B1604AE5C
:102AE000D1F106AE1CCC09AE13A50CAEB07C0FAE76
:102AF000E75212AEB92715AE1BFB17AE02CD1AAEC8
:102B00006D9D1DAE566C20AEB13923AE790526AE53
:102B1000A7CF28AE33982BAE1B5F2EAE522431AE1A
:102B2000D6E733AE9EA936AEA26939AEDE273CAEFB
:102B300047E43EAEDB9E41AE925744AE630E47AED5
:102B40004AC349AE3E764CAE3A274FAE37D651AE69
:102B50002E8354AE1B2E57AEF3D659AEB07D5CAE6D
:102B60004E225FAEC7C461AE136564AE2A0367AE82
:102B7000079F69AEA3386CAEF9CF6EAE026571AE39
:102B8000B8F773AE128876AE0D1679AEA2A17BAE01
:102B9000CB2A7EAEC05880AEDD9A81AEBADB82AE63
:102BA000551B84AEAA5985AEB69686AE75D287AE51
:102BB000E60C89AE04468AAECD7D8BAE3FB48CAEBA
:102BC00055E98DAE0C1D8FAE634F90AE558091AE22
:102BD000E1AF92AE03DE93AEB70A95AEFC3596AE8A
:102BE000CF5F97AE2C8898AE10AF99AE7BD49AAEDB
:102BF00065F89BAED01A9DAEB83B9EAE175B9FAEFC
:102C0000EF78A0AE3A95A1AEF6AFA2AE22C9A3AEC0
:102C1000B9E0A4AEB9F6A5AE200BA7AEEB1DA8AEE9
:102C2000172FA9AEA13EAAAE874CABAEC658ACAE2C
:102C30005E63ADAE476CAEAE8473AFAE0F79B0AE2F
:102C4000E77CB1AE097FB2AE737FB3AE217EB4AE86
:102C5000127BB5AE4476B6AEB36FB7AE5E67B8AEB4
:102C6000415DB9AE5C51BAAEAA43BBAE2B34BCAE2B
:102C7000DA22BDAEB80FBEAEC0FABEAEF3E3BFAE51
:102C800049CBC0AEC6B0C1AE6494C2AE2276C3AE6C
:102C9000FF55C4AEF633C5AE0610C6AE2FEAC6AEBB
:102CA0006BC2C7AEBC98C8AE1E6DC9AE8E3FCAAE71
:102CB0000C10CBAE94DECBAE26ABCCAEBE75CDAE9B
:102CC0005B3ECEAEFD04CFAE9DC9CFAE408CD0AE44
:102CD000DE4CD1AE770BD2AE0BC8D2AE9882D3AE5B
:102CE000193BD4AE8FF1D4AEF9A5D5AE5258D6AEBD
:102CF0009A08D7AED0B6D7AEF262D8AEFF0CD9AE36
:102D0000F4B4D9AECF5ADAAE8FFEDAAE33A0DBAE72
:102D1000B73FDCAE1EDDDCAE6178DDAE8F11DEAE1E
:102D20008AA8DEAE623DDFAE17D0DFAEA860E0AEAF
:102D300006EFE0AE337BE1AE4A05E2AE218DE2AEB6
:102D4000C612E3AE4896E3AE9717E4AEB496E4AE8F
:102D50009113E5AE4A8EE5AEC306E6AEFB7CE6AE69
:102D600001F1E6AED562E7AE69D2E7AEBC3FE8AEB0
:102D7000DDAAE8AEBE13E9AE5E7AE9AEAFDEE9AE3B
:102D8000CF40EAAEADA0EAAE4CFEEAAE9B59EBAE48
:102D9000AAB2EBAE7909ECAEF85DECAE38B0ECAEB1
:102DA0002800EDAED84DEDAE3999EDAE4BE2EDAE6B
:102DB0001D29EEAEA06DEEAED4AFEEAEB9EFEEAE25
:102DC0004F2DEFAE9668EFAE9DA1EFAE47D8EFAEB8
:102DD000A10CF0AEAD3EF0AE796EF0AED89BF0AE89
:102DE000F7C6F0AEB9EFF0AE3B16F1AE5F3AF1AE1A
:102DF000265CF1AE9E7BF1AEC798F1AEA1B3F1AE09
:102E00001FCCF1AE4DE2F1AE1DF6F1AE9F07F2AE72
:102E1000D316F2AEA823F2AE2F2EF2AE5936F2AE92
:102E2000253CF2AEB13FF2AED240F2AEB13FF2AECF
:102E3000253CF2AE5936F2AE2F2EF2AEA823F2AEFA
:102E4000D316F2AE9F07F2AE1DF6F1AE4DE2F1AE33
:102E50001FCCF1AEA1B3F1AEC798F1AE9E7BF1AE3F
:102E6000265CF1AE5F3AF1AE3B16F1AEB9EFF0AED3
:102E7000F7C6F0AED89BF0AE796EF0AEAD3EF0AED8
:102E8000A10CF0AE47D8EFAE9DA1EFAE9668EFAEC5
:102E90004F2DEFAEB9EFEEAED4AFEEAEA06DEEAE0D
:102EA0001D29EEAE4BE2EDAE3999EDAED84DEDAE4B
:102EB0002800EDAE38B0ECAEF85DECAE7909ECAEC2
:102EC000AAB2EBAE9B59EBAE4CFEEAAEADA0EAAEB9
:102ED000CF40EAAEAFDEE9AE5E7AE9AEBE13E9AE50
:102EE000DDAAE8AEBC3FE8AE69D2E7AED562E7AE98
:102EF00001F1E6AEFB7CE6AEC306E6AE4A8EE5AE79
:102F00009113E5AEB496E4AE9717E4AE4896E3AEFF
:102F1000C612E3AE218DE2AE4A05E2AE337BE1AEEE
:102F200006EFE0AEA860E0AE17D0DFAE623DDFAEE8
:102F30008AA8DEAE8F11DEAE6178DDAE1EDDDCAEBE
:102F4000B73FDCAE33A0DBAE8FFEDAAECF5ADAAEDF
:102F5000F4B4D9AEFF0CD9AEF262D8AED0B6D7AECB
:102F60009A08D7AE5258D6AEF9A5D5AE8FF1D4AEE9
:102F7000193BD4AE9882D3AE0BC8D2AE770BD2AE8B
:102F8000DE4CD1AE408CD0AE9DC9CFAEFD04CFAEED
:102F90005B3ECEAEBE75CDAE26ABCCAE94DECBAE38
:102FA0000C10CBAE8E3FCAAE1E6DC9AEBC98C8AE7B
:102FB0006BC2C7AE2FEAC6AE0610C6AEF633C5AEBC
:102FC000FF55C4AE2276C3AE6494C2AEC6B0C1AEE5
:102FD00049CBC0AEF3E3BFAEC0FABEAEB80FBEAED3
:102FE000DA22BDAE2B34BCAEAA43BBAE5C51BAAE46
:102FF000415DB9AE5E67B8AEB36FB7AE4476B6AEFC
:10300000127BB5AE217EB4AE737FB3AE097FB2AE94
:10301000E77CB1AE0F79B0AE8473AFAE476CAEAEA5
:103020005E63ADAEC658ACAE874CABAEA13EAAAEA9
:10303000172FA9AEEB1DA8AE200BA7AEB9F6A5AE13
:10304000B9E0A4AE22C9A3AEF6AFA2AE3A95A1AE46
:10305000EF78A0AE175B9FAEB83B9EAED01A9DAE88
:1030600065F89BAE7BD49AAE10AF99AE2C8898AE23
:10307000CF5F97AEFC3596AEB70A95AE03DE93AE42
:10308000E1AF92AE558091AE634F90AE0C1D8FAE06
:1030900055E98DAE3FB48CAECD7D8BAE04468AAE85
:1030A000E60C89AE75D287AEB69686AEAA5985AEC5
:1030B000551B84AEBADB82AEDD9A81AEC05880AEBD
:1030C000CB2A7EAEA2A17BAE0D1679AE128876AE6B
:1030D000B8F773AE026571AEF9CF6EAEA3386CAEC1
:1030E000079F69AE2A0367AE136564AEC7C461AEBD
:1030F0004E225FAEB07D5CAEF3D659AE1B2E57AEFE
:103100002E8354AE37D651AE3A274FAE3E764CAEF4
:103110004AC349AE630E47AE925744AEDB9E41AE02
:1031200047E43EAEDE273CAEA26939AE9EA936AE7C
:10313000D6E733AE522431AE1B5F2EAE33982BAEA2
:10314000A7CF28AE790526AEB13923AE566C20AE96
:103150006D9D1DAE02CD1AAE1BFB17AEB92715AE85
:10316000E75212AEB07C0FAE13A50CAE1CCC09AE6C
:10317000D1F106AE3B1604AE5C3901AE80B6FCADB3
:10318000DAF7F6ADD036F1AD7573EBADD3ADE5AD95
:10319000F7E5DFADF71BDAADDF4FD4ADB581CEADCE
:1031A0008FB1C8AD80DFC2AD8C0BBDADC535B7AD3D
:1031B000375EB1ADF884ABAD0FAAA5AD8DCD9FAD97
:1031C00083EF99ADFC0F94AD0A2F8EADB84C88AD4E
:1031D000126982AD5F0879AD2B3C6DADB66D61AD06
:1031E0000C9D55AD5CCA49ADB0F53DAD371F32AD54
:1031F000064726AD396D1AADEF910EAD45B502AD5E
:10320000B2AEEDAC8EF0D5AC5A30BEAC536EA6ACBF
:10321000AEAA8EAC56CB6DAC063F3EACE0B00EAC69
:10322000AF42BEAB9B433EAB00000000000000007D
:1032300000000000000000000000000000001FCCA3
:10324000000C0000000000000000080030006000DA
:103250000800300060000000022003FC1E20022055
:1032600003FC1E200220000000000E1811043FFF86
:1032700010840C78000000000F0010840F3800C08C
:10328000077818840078000000780F8410C4112497
:103290000E9800E400840008080068007000000038
:1032A000000000000000000000000000000007E037
:1032B00018182004400200000000400220041818E2
:1032C00007E00000000000000240024001800FF013
:1032D00001800240024000000080008000800FF862
:1032E00000800080008000000001000D000E000042
:1032F000000000000000000000000080008000804E
:1033000000800080008000800000000C000C0000A5
:10331000000000000000000000000006001800602F
:103320000180060018002000000007F008081004C3
:103330001004080807F000000000080408041FFC3F
:10334000000400040000000000000E0C1014102403
:10335000104411840E0C000000000C18100411041D
:10336000110412880C700000000000E00320042407
:1033700008241FFC0024000000001F981084110482
:103380001104108810700000000007F00888110474
:10339000110418880070000000001C00100010FCD0
:1033A00013001C001000000000000E3811441084AF
:1033B000108411440E38000000000700088C1044EF
:1033C0001044088807F00000000000000000030C13
:1033D000030C0000000000000000000000010106D6
:1033E00000000000000000000000008001400220FA
:1033F000041008081004000002200220022002200D
:10340000022002200220000000001004080804101E
:10341000022001400080000000000E001200100C8D
:10342000106C10800F00000003E00C1813E414244B
:1034300017C4082807D000000004003C03C41C4047
:10344000074000E4001C000410041FFC11041104D8
:1034500011040E880070000003E00C181004100422
:10346000100410081C10000010041FFC10041004AD
:103470001004080807F0000010041FFC11041104D8
:1034800017C410040818000010041FFC11041100D8
:1034900017C010000800000003E00C18100410040E
:1034A00010441C780040000010041FFC10840080B1
:1034B000008010841FFC10040000100410041FFC86
:1034C00010041004000000000003000110011001AE
:1034D0001FFE10001000000010041FFC11040380E8
:1034E0001464181C1004000010041FFC10040004D5
:1034F00000040004000C000010041FFC1F0000FC6E
:103500001F001FFC1004000010041FFC0C0403002B
:1035100000E010181FFC100007F008081004100449
:103520001004080807F0000010041FFC108410802D
:10353000108010800F00000007F0081810241024DD
:10354000101C080A07F2000010041FFC11041100EF
:1035500011C011300E0C000400000E1C1104108468
:10356000108410441C3800001800100010041FFCC8
:10357000100410001800000010001FF810040004D0
:10358000000410041FF8100010001E0011E0001CC1
:10359000007013801C0010001FC0103C00E01F00D2
:1035A00000E0103C1FC000001004180C163401C0CD
:1035B00001C01634180C100410001C00130400FC89
:1035C00013041C00100000000804101C1064108478
:1035D00013041C04101800000000000000007FFE0F
:1035E0004002400240020000000030000C00038056
:1035F0000060001C00030000000040024002400286
:103600007FFE0000000000000000000020004000DD
:103610004000400020000000000100010001000106
:1036200000010001000100010000400040002000F6
:103630000000000000000000000000980124014488
:103640000144014400FC000410001FFC0088010438
:103650000104008800700000000000700088010470
:1036600001040104008800000000007000880104CB
:10367000010411081FFC0004000000F8014401448B
:103680000144014400C800000000010401040FFCD3
:103690001104110411001800000000D601290129AD
:1036A000012901C90106000010041FFC008401006B
:1036B0000100010400FC000400000104190419FCCD
:1036C00000040004000000000000000300010101EC
:1036D000190119FE0000000010041FFC0024004026
:1036E00001B4010C010400000000100410041FFCD0
:1036F0000004000400000000010401FC01040100BA
:1037000001FC0104010000FC010401FC0084010033
:103710000100010400FC0004000000F801040104A1
:103720000104010400F80000010101FF008501040B
:10373000010400880070000000000070008801048F
:103740000104010501FF00010104010401FC0084E2
:103750000104010001800000000000CC01240124CC
:10376000012401240198000000000100010007F875
:103770000104010400000000010001F8000400043D
:103780000004010801FC0004010001800170000C2C
:10379000001001600180010001F0010C003001C047
:1037A0000030010C01F0010000000104018C0074E4
:1037B0000170018C01040000010101810171000E02
:1037C000001801600180010000000184010C013437
:1037D00001440184010C0000000000000000000012
:1037E00001003EFC4002400200000000000000001A
:1037F000FFFF0000000000000000400240023EFC0D
:103800000100000000000000000060008000800057
:1038100040004000200020000000000000000000E8
:103820000000000000000000000000000000000098
:103830000000000000000000000000000000000088
:1038400000000000000000000000000F80380FFEA4
:10385000380F803800000000000000000000000069
:103860000000000000000100000600000C0000380D
:1038700000003100000600000C000038000030009D
:10388000000000000000000061800067F807F98078
:103890000061800061800061800061800067F8073E
:1038A000F98000618000000000000000000001C0FD
:1038B000E003E0F00630080418081FFFFE040E08BD
:1038C0000787F00381E000000000000001F000061F
:1038D0000C00040408060C7001F9C0000E00003B47
:1038E000E000EC18070808040C180003E0000000D2
:1038F0000001E00007F003F818041C08041708078B
:10390000E1D003C0E00023B0003C08002008000024
:103910001000000000000001000031000032000033
:103920001C0000000000000000000000000000007B
:103930000000000000000000000000000000000087
:1039400000000000000000007F0001FFC00780F0C1
:103950000C001810000420000200000000000020ED
:1039600000021000040C00180780F001FFC0007F67
:103970000000000000000000000000000000000047
:10398000000000004200006600006600003C0000ED
:10399000180003FFC0001800003C0000660000662D
:1039A00000004200000000000800000800000800BD
:1039B00000080000080001FFC00008000008000027
:1039C00008000008000008000000000000010000DE
:1039D0003100003200001C00000000000000000068
:1039E00000000000000000000000000000000000D7
:1039F0000800000800000800000800000800000897
:103A00000000080000080000080000080000000096
:103A100000000000000000003800003800003800FE
:103A20000000000000000000000000000000000096
:103A30000000000000000000000600001C000070F4
:103A4000000180000E0000380000C0000700001CCC
:103A50000000300000000000000000007F8001FF37
:103A6000E00380700600180400080400080600182F
:103A700003807001FFE0007F800000000000000074
:103A8000000001000801000801000803FFF807FF1B
:103A9000F800000800000800000800000000000016
:103AA00000000001C03802C0580400980401180446
:103AB0000218040418061C1803F81801E0F80000A6
:103AC0000000000000000001C0E003C0F004000896
:103AD00004080804080806180803F41801E7F000B1
:103AE00001E0000000000000000000000300000DE5
:103AF0000000110000610000810803010807FFF8C1
:103B00000FFFF8000108000108000000000000009D
:103B100000E007FCD006080806100806100806108A
:103B200008061838060FF00607C000000000000065
:103B3000000000003F8001FFE00384300208180409
:103B40001008041008041008071810030FF00007ED
:103B5000C000000000000000000003C000070000DB
:103B60000600000600F80607F806180006E0000741
:103B7000000006000000000000000001E1E003F783
:103B8000F0063410041808041808040C08040C0883
:103B900006161803F3F001C1E00000000000000069
:103BA000F80003FC3003063804020804020804028B
:103BB000080404100308F001FFC0007F00000000AB
:103BC00000000000000000000000000000000000F5
:103BD00070380070380070380000000000000000ED
:103BE00000000000000000000000000000000000D5
:103BF00000000000301A00301C000000000000002F
:103C000000000000000000000000000000000008AC
:103C100000001400002200004100008080010040EC
:103C2000020020040010080008000000000000004E
:103C300021000021000021000021000021000021BE
:103C400000002100002100002100002100000000F0
:103C5000000000000000080008040010020020011D
:103C60000040008080004100002200001400000895
:103C70000000000000000003C00004C000040000B9
:103C8000080038080F380808380810000C30000702
:103C9000E00003C000000000000000003F8000FFC3
:103CA000E0038070020F1006708804C08804830847
:103CB000047F8802C09003012000FE40000008003D
:103CC00000180001F8003E0801C20007020007E2E8
:103CD0000000FE00001FC80001F8000038000008C6
:103CE00004000807FFF807FFF804080804080804A0
:103CF000080804080806180803F41801E7F0000192
:103D0000E0000000000000003F8001FFE003807041
:103D1000020018040008040008040008040010064B
:103D200000200780C000000004000807FFF807FF1C
:103D3000F804000804000804000804001802001039
:103D400003807001FFE0007F80000000040008078E
:103D5000FFF807FFF8040808040808040808040826
:103D600008043E0804000806001801006000000076
:103D700004000807FFF807FFF80408080408000417
:103D80000800040800043E00060000060000018050
:103D900000000000000000003F8001FFE003807091
:103DA0000600180400080402080402080203F007D1
:103DB00083F000020000020004000807FFF807FF7C
:103DC000F8040808000800000800000800000800C7
:103DD00004080807FFF807FFF804000800000000C7
:103DE000000004000804000804000807FFF807FFAB
:103DF000F8040008040008040008000000000000A7
:103E0000000000000006000007000001040001049B
:103E1000000104000307FFFE07FFFC04000004008C
:103E20000004000004000807FFF807FFF8040C086E
:103E3000001800003E0004C7800503C80600F8040F
:103E4000003804001800000804000807FFF807FF06
:103E5000F80400080000080000080000080000083E
:103E600000000800001800006000000004000807BF
:103E7000FFF807800807FC00007FC00003F8000778
:103E8000C000780007800807FFF807FFF804000863
:103E900004000807FFF807000803C00000E0000066
:103EA0003800001E000007000001C00400F007FFFA
:103EB000F8040000000000007F8001FFE003807034
:103EC000060018040008040008060018030030016A
:103ED000FFE0007F8000000004000807FFF807FFF4
:103EE000F8040408040400040400040400040400AA
:103EF000060C0003F80001F00000000000000000C4
:103F00007F8001FFE00380700600880400880400C1
:103F1000C806003C03003E01FFE6007F840000006D
:103F200004000807FFF807FFF80408080408000465
:103F30000C00040F00040BC00610F003F03801E081
:103F40000800000800000001E0F803F0300630101F
:103F5000041808041808040C08040C0802061802C7
:103F600007F00781E0000000018000060000040067
:103F70000004000004000807FFF807FFF804000829
:103F80000400000400000600000180000400000797
:103F9000FFE007FFF0040018000008000008000020
:103FA0000800000800000804001007FFE0040000FB
:103FB00004000006000007E00007FE00041FE00008
:103FC00001F80000380001E0043E0007C0000600D0
:103FD0000004000004000007E00007FFC0041FF811
:103FE0000007C007F80007FF80043FF80007C0047F
:103FF000F8000700000400000000000400080600AC
:104000001807C07805F1C8003E00001F800463E86F
:104010000780F806001804000800000004000006ED
:10402000000007800007E008047C08001FF8000774
:10403000F800180804E0080700000600000400006B
:104040000000000100080600380400F80403E8043A
:104050000F08047C0805F00807C0080700180400D2
:1040600060000000000000000000000000000000F0
:104070000000003FFFFE200002200002200002207E
:104080000002200002000000000000000000080004
:104090000007000000C0000038000006000001C05A
:1040A00000003000000E00000100000000000000D1
:1040B0000000200002200002200002200002200058
:1040C000023FFFFE000000000000000000000000B2
:1040D0000000000000000000000800001000003098
:1040E0000000200000300000100000080000000068
:1040F00000000000000001000001000001000001BC
:1041000000000100000100000100000100000100AA
:10411000000100000100000100000000000000009C
:10412000002000002000001000001000000000002F
:10413000000000000000000000000000000000007F
:1041400000F00019F8001B180022080026080024BF
:1041500008002410003FF8001FF8000008000018B5
:1041600000000004000007FFF80FFFF0001818001F
:104170001008002008002008003018001FF0000F71
:10418000C00000000000000007C0001FF000183051
:10419000002008002008002008003C08001C100037
:1041A00000600000000000000000000007C0001FC9
:1041B000F000381800200800200800200804101023
:1041C00007FFF80FFFF000001000000000000000E3
:1041D00000000007C0001FF000123000221800226B
:1041E00008002208003208001E10000E2000000007
:1041F00000000000200000200800200801FFF80354
:10420000FFF8062008042008042008072000030007
:104210000000000000000000000E000E6E001FF302
:104220000031B10020B10020B1003191001F130016
:104230002E1E00200E00300000000004000807FFC2
:10424000F80FFFF8001008002000002000002008F0
:10425000003FF8001FF80000080000000000000008
:104260000000002008002008002008063FF8063F54
:10427000F80000080000080000080000000000002E
:104280000000000000000000030000030020010007
:104290002001002003063FFE063FFC000000000056
:1042A0000000000000000004000807FFF80FFFF8FE
:1042B000000188000300002FC00038F800203800FB
:1042C00020080000080000000000000000000400BA
:1042D0000804000804000807FFF80FFFF8000008B2
:1042E0000000080000080000000000000020080096
:1042F0003FF8003FF8001008002000003FF8003FA2
:10430000F8001008002000003FF8003FF800000807
:10431000000000002008003FF8003FF800100800EF
:104320001000002000002008003FF8001FF80000E7
:10433000080000000000000007C0000FF000183067
:104340000030080020080020080030080018300065
:104350000FF00007C0000000000000002001003F37
:10436000FF003FFF00101100200900200800200876
:10437000003038001FF0000FC000000000000000F7
:1043800007C0001FF0003818002008002008002097
:1043900009001011001FFF003FFF00000100000096
:1043A000002008002008002008003FF8003FF80027
:1043B000080800100800200800200000300000302D
:1043C00000000000000000000000000C78001E1833
:1043D00000330800230800210800218800219800EC
:1043E00030F00038600000000000000020000020D5
:1043F0000000200000FFF003FFF800200800200864
:104400000020080000300000000000000000000054
:104410002000003FF0007FF80000180000080000B6
:1044200008002010003FF8007FF00000100000009E
:10443000000000002000003000003C00003F800031
:1044400023F0000078000070002380003C00003062
:1044500000002000002000003C00003FE00023F8A6
:104460000000E0002700003E00003FE00021F800CF
:1044700001E0003E000020000000000020080020B5
:1044800008003838003E680027800003C8002CF878
:10449000003838002018002008000000000000004C
:1044A0002000003003003C01003F830023EC0000AB
:1044B00070002380003C000020000020000000006D
:1044C0000000000000000038080020380020F8003C
:1044D00023E8002F88003E0800380800201800005C
:1044E000700000000000000000000000000000005C
:1044F0000000000008000014001FF7FC3000062038
:1045000000020000000000000000000000000000A9
:1045100000000000000000000000FFFFFF0000009E
:10452000000000000000000000000000000000008B
:1045300000002000023000061FF7FC0014000008F5
:10454000000000000000000000000000000000006B
:104550000000001800006000004000004000002043
:1045600000001000000800000400000400000C001F
:10457000001000000000000000000000000000002B
:10458000000000000000000000000000000000002B
:10459000000000000000000000000000000000001B
:1045A000000000000000000F80380FFE380F803838
:1045B00000000000000000000000000000000000FB
:1045C00000000100000600000C000038000031006F
:1045D000000600000C000038000030000000000061
:1045E0000000000000000100000180000380300393
:1045F000C03007C03007E0300FE0300FF0300FF070
:104600003001803001803001803001803001803005
:1046100001803001803001C07000E0E0007FE000E8
:104620003F80000000000000000C00000E00001F92
:104630000000FF8003FFE007FFE00FFFC00FFF80D7
:104640001FEF001C0E0038080230000420000C4050
:10465000101C00703800F7F801FFF003FFF007FFAF
:10466000E007FFC001FF0000F8000070000030000C
:104670000000000100003100003200001C000000BA
:10468000000000000000000000000000000000002A
:10469000000000000000000003C0003FE011F060D7
:1046A0003980607C0060D60C60100C60108C60104B
:1046B0008C60108C60108C60108C60108C60108C82
:1046C000601084601080601081E81000F8100470A1
:1046D000107C601BF0000F000000000000000000D4
:1046E00061800067F807F9800061800061800061E7
:1046F000800061800067F807F98000618000000099
:104700000000000008000008000008000008000089
:10471000080001FFC00008000008000008000008B1
:10472000000008000000000000010000310000321D
:1047300000001C000000000000000000000000005D
:104740000000000000000000000000000800000859
:104750000000080000080000080000080000080031
:104760000008000008000008000000000000000031
:104770000000000038000038000038000000000091
:104780000000000000000000000000000000000029
:1047900000000000000600001C0000700001800006
:1047A0000E0000380000C0000700001C00003000B0
:1047B00000000000000000007F8001FFE003807027
:1047C00006001804000804000806001803807001A1
:1047D000FFE0007F800000000000000000000100FA
:1047E0000801000801000803FFF807FFF8000008AF
:1047F00000000800000800000000000000000001A8
:10480000C03802C0580400980401180402180404B7
:1048100018061C1803F81801E0F80000000000005A
:1048200000000001C0E003C0F00400080408080410
:10483000080806180803F41801E7F00001E000007A
:1048400000000000000000000300000D0000110047
:1048500000610000810803010807FFF80FFFF8005E
:1048600001080001080000000000000000E007FC53
:10487000D0060808061008061008061008061838A2
:10488000060FF00607C00000000000000000000056
:104890003F8001FFE0038430020818041008041070
:1048A00008041008071810030FF00007C0000000EC
:1048B00000000000000003C0000700000600000622
:1048C00000F80607F806180006E0000700000600DA
:1048D0000000000000000001E1E003F7F0063410E2
:1048E000041808041808040C08040C080616180319
:1048F000F3F001C1E000000000000000F80003FC3C
:1049000030030638040208040208040208040410F4
:104910000308F001FFC0007F00000000000000005D
:10492000000000000000000000000000703800706F
:104930003800703800000000000000000000000097
:104940000000000000000000000000000000000067
:10495000301A00301C0000000000000000000000C1
:10496000000000000000000300000700000E00002F
:104970001C00003FFFF83FFFF81C00000E0000077E
:1049800000000300000000000000000021000021E2
:104990000000210000210000210000210000210072
:1049A00000210000210000210000000000000000A4
:1049B00000C00000E00000700000381FFFFC1FFF77
:1049C000FC0000380000700000E00000C0000000A3
:1049D00000000003C00004C0000400000800380804
:1049E0000F380808380810000C300007E00003C03A
:1049F00000000000000000003F8000FFE003807026
:104A0000020F1006708804C088048308047F88029F
:104A1000C09003012000FE400000080000180001C3
:104A2000F8003E0801C20007020007E20000FE0095
:104A3000001FC80001F80000380000080400080743
:104A4000FFF807FFF8040808040808040808040829
:104A50000806180803F41801E7F00001E000000060
:104A6000000000003F8001FFE00380700200180496
:104A70000008040008040008040010060020078055
:104A8000C000000004000807FFF807FFF804000852
:104A900004000804000804001802001003807001DC
:104AA000FFE0007F8000000004000807FFF807FF18
:104AB000F8040808040808040808040808043E0864
:104AC0000400080600180100600000000400080748
:104AD000FFF807FFF80408080408000408000408A9
:104AE00000043E00060000060000018000000000F7
:104AF000000000003F8001FFE00380700600180402
:104B000000080402080402080203F00783F0000210
:104B10000000020004000807FFF807FFF804080877
:104B2000000800000800000800000800040808074A
:104B3000FFF807FFF8040008000000000000040070
:104B40000804000804000807FFF807FFF80400083D
:104B5000040008040008000000000000000000003D
:104B60000006000007000001040001040001040029
:104B70000307FFFE07FFFC04000004000004000020
:104B800004000807FFF807FFF8040C0800180000ED
:104B90003E0004C7800503C80600F804003804007E
:104BA0001800000804000807FFF807FFF8040008D1
:104BB00000000800000800000800000800000800CD
:104BC000001800006000000004000807FFF80780DC
:104BD0000807FC00007FC00003F80007C000780051
:104BE00007800807FFF807FFF8040008040008071B
:104BF000FFF807000803C00000E000003800001EB6
:104C0000000007000001C00400F007FFF8040000E6
:104C1000000000007F8001FFE003807006001804A0
:104C2000000804000806001803003001FFE0007FC0
:104C30008000000004000807FFF807FFF8040408DC
:104C4000040400040400040400040400060C00032F
:104C5000F80001F000000000000000007F8001FF6C
:104C6000E00380700600880400880400C806003C49
:104C700003003E01FFE6007F8400000004000807F7
:104C8000FFF807FFF8040808040800040C00040FEC
:104C900000040BC00610F003F03801E00800000823
:104CA00000000001E0F803F030063010041808049A
:104CB0001808040C08040C080206180207F0078103
:104CC000E000000001800006000004000004000075
:104CD00004000807FFF807FFF804000804000004B8
:104CE000000006000001800004000007FFE007FF4D
:104CF000F004001800000800000800000800000888
:104D000000000804001007FFE00400000400000693
:104D1000000007E00007FE00041FE00001F80000AB
:104D2000380001E0043E0007C00006000004000057
:104D300004000007E00007FFC0041FF80007C007D9
:104D4000F80007FF80043FF80007C004F8000700E0
:104D50000004000000000004000806001807C078E6
:104D600005F1C8003E00001F800463E80780F806D4
:104D7000001804000800000004000006000007807E
:104D80000007E008047C08001FF80007F800180876
:104D900004E0080700000600000400000000000115
:104DA00000080600380400F80403E8040F08047C37
:104DB0000805F00807C0080700180400600000009C
:104DC00000000000010008010208010608010408B3
:104DD000010C0801187FFF387FFF703FFF600891CA
:104DE000600891000891000891000891007FFF4041
:104DF0007FFF6028013008013808011C08031E08E5
:104E0000030E000100000000000000000400001C70
:104E10000000780001E0000FFFFE7FFFFE78A00099
:104E200020200000600003FFFC03FFFC02400400A0
:104E3000C0047FFFC47FFFC42082040182040103F9
:104E40000403FF0403FF0401007C00007C00000851
:104E5000000001000001000001000001000001004D
:104E6000000100000100000100000100000100003D
:104E70000100000100000000000000000020000010
:104E800020000010000010000000000000000000E2
:104E900000000000000000000000000000F0001909
:104EA000F8001B180022080026080024080024101F
:104EB000003FF8001FF80000080000180000000480
:104EC000000007FFF80FFFF000181800100800207E
:104ED00008002008003018001FF0000FC00000007C
:104EE0000000000007C0001FF0001830002008007C
:104EF0002008002008003C08001C10000060000092
:104F0000000000000000000007C0001FF00038187B
:104F100000200800200800200804101007FFF80FE8
:104F2000FFF000001000000000000000000000077B
:104F3000C0001FF0001230002218002208002208D2
:104F4000003208001E10000E2000000000000000CB
:104F5000200000200800200801FFF803FFF80620C9
:104F600008042008042008072000030000000000B7
:104F700000000000000E000E6E001FF30031B100B3
:104F800020B10020B1003191001F13002E1E00201F
:104F90000E00300000000004000807FFF80FFFF8C3
:104FA000001008002000002000002008003FF8004A
:104FB0001FF80000080000000000000000000020B2
:104FC00008002008002008063FF8063FF800000807
:104FD00000000800000800000000000000000000C1
:104FE0000000000003000003002001002001002059
:104FF00003063FFE063FFC0000000000000000002A
:1050000000000004000807FFF80FFFF80001880007
:105010000300002FC00038F80020380020080000EE
:105020000800000000000000000004000804000860
:1050300004000807FFF80FFFF80000080000080050
:105040000008000000000000002008003FF8003FBA
:10505000F8001008002000003FF8003FF80010089A
:10506000002000003FF8003FF800000800000000AA
:105070002008003FF8003FF8001008001000002052
:1050800000002008003FF8001FF8000008000000A2
:105090000000000007C0000FF000183000300800CA
:1050A0002008002008003008001830000FF000072A
:1050B000C0000000000000002001003FFF003FFF93
:1050C00000101100200900200800200800303800DE
:1050D0001FF0000FC00000000000000007C0001F0C
:1050E000F0003818002008002008002009001011E6
:1050F000001FFF003FFF000001000000002008002B
:105100002008002008003FF8003FF80008080010C1
:1051100008002008002000003000003000000000DF
:10512000000000000000000C78001E18003308008A
:1051300023080021080021880021980030F0003861
:10514000600000000000000020000020000020009F
:1051500000FFF003FFF800200800200800200800EE
:105160000030000000000000000000002000003FB0
:10517000F0007FF800001800000800000800201070
:10518000003FF8007FF00000100000000000000069
:105190002000003000003C00003F800023F00000B1
:1051A00078000070002380003C00003000002000E8
:1051B000002000003C00003FE00023F80000E00079
:1051C0002700003E00003FE00021F80001E0003E23
:1051D00000002000000000002008002008003838EF
:1051E000003E680027800003C8002CF80038380013
:1051F00020180020080000000000000020000030FF
:1052000003003C01003F830023EC0000700023807A
:10521000003C000020000020000000000000000012
:1052200000000038080020380020F80023E8002F94
:1052300088003E08003808002018000070000000B8
:10524000000000000000000000000000000000005E
:1052500008000014001FF7FC3000062000020000C8
:10526000000000000000000000000000000000003E
:10527000000000000000FFFFFF0000000000000031
:1052800000000000000000000000000000002000FE
:10529000023000061FF7FC001400000800000000A8
:1052A00000000000000000000000000000000018E6
:1052B00000006000004000004000002000001000DE
:1052C000000800000400000400000C0000100000B2
:1052D00000000000000000000000000000000000CE
:1052E00000000000000000000000000000000000BE
:1052F00000000000000000000000000000000000AE
:10530000000000000000000000000000000000009D
:10531000000000000000000000000000000000008D
:10532000000000000000000003F0006003FFF8F040
:1053300003FFF8F003FFF8F003F80060000000003E
:10534000000000000000000000000000000000005D
:10535000000000000000000000C0000001C00000CC
:10536000078000001F0000003E0000003CC000005D
:1053700039C00000078000001F0000003E00000050
:105380003C000000380000000000000000000000A9
:1053900000000000001C0E00001C0E00001C0FF09E
:1053A000001FFFF003FFFF0003FC0E00001C0E00B7
:1053B000001C0E00001C0E00001C0FF0001FFFF070
:1053C00003FFFF0003FC0E00001C0E00001C0E007B
:1053D0000000000000000000000003C0007803E0AF
:1053E00001FE03E001FF0330030F80100FFFFFFEFB
:1053F0000FFFFFFE0200E0300330F87001F07FE0A5
:1054000001F03FC000F00F8000000000000000002D
:10541000007E000001FF800003FFC0000300C030D9
:105420000300C1F003FFC7C001FFBE00007EF8000B
:105430000007DF80003F7FE000F8FFF003C0C030CE
:105440000300C0300000FFF000007FE000001F807C
:1054500000001F8000003FC000FEFFE001FFC070A1
:1054600003FFF0300303FC1002077E1003FE1FB0A1
:1054700003FC07E000F081E000008FF00000FE7008
:105480000000F03000008070000080E0000000C0EC
:10549000000000000040000038C0000038C00000DC
:1054A0003F8000003F0000001E00000000000000E0
:1054B00000000000000000000000000000000000EC
:1054C00000000000000000000000000000000000DC
:1054D00000000000000000000000000000000000CC
:1054E00000000000000000000001C0F8000FF87884
:1054F000001FFC38007FFE3800780F3800E00338CA
:1055000001C001B8018000F8018000F8010000002E
:105510000100000001000000018000F8018000F897
:1055200001C001B800E0033800F80738007FFE38FA
:10553000003FFC38001FF8780003E0F8000000008E
:10554000000000000000000000000000000000005B
:1055500000000000000000000001C0000001C000C9
:105560000001C0000001C0000001C0000001C00037
:105570000001C0000001C0000001C0000001C00027
:105580000001C0000001C000000000000000000099
:10559000000000000000000000008000000080000B
:1055A00000008000000080000000800000008000FB
:1055B000007FFF00007FFF000000800000008000EF
:1055C00000008000000080000000800000008000DB
:1055D0000000000000000001000000E3000000E304
:1055E000000000FE000000FC000000780000000049
:1055F00000000000000000000000000000000000AB
:10560000000000000000000000000000000000009A
:10561000000000000000800000008000000080000A
:10562000000080000000800000008000000080007A
:10563000000080000000800000008000000080006A
:10564000000080000000800000008000000080005A
:10565000000000000000000000000060000000F0FA
:10566000000000F0000000F00000006000000000FA
:10567000000000000000000000000000000000002A
:10568000000000000000000000000000000000001A
:10569000000000000000000C0000003C000000F8CA
:1056A000000003E000000F8000003E000000F80052
:1056B0000003E000000F8000003E000000F8000042
:1056C00003E000000F8000001E0000001800000032
:1056D0000000000000000000000FFC00007FFF80C1
:1056E00000FFFFC001F003E0038000700300003002
:1056F00002000010020000100380007001E001E0D1
:1057000000FFFFC0007FFF80000FFC0000000000D2
:1057100000000000000000000000000000800010F9
:1057200000800010008000100080003001FFFFF0BA
:1057300003FFFFF003FFFFF0000000300000001047
:105740000000001000000010000000000000000039
:1057500000000000000000000078007000F800F079
:10576000019801B00300033002000E3002001C302B
:1057700002003830020070300300E0300383C03094
:1057800001FF807001FF03F0007C03C000000000F7
:10579000000000000000000000F003C001F003E082
:1057A00001F003E0030000300200801002008010CE
:1057B000020080100301C0100383C03001FF60604D
:1057C00000FE7FE0007C3FC000000F0000000000F2
:1057D0000000000000000C0000003C00000074000D
:1057E0000001E40000078400000E041000380410DB
:1057F00000F0041003FFFFF003FFFFF003FFFFF0D2
:10580000000004100000041000000410000000005C
:105810000000000000000000000003C000FFC3E023
:1058200003FFC320030180300303001003020010B4
:10583000030200100302001003030030030380E0A2
:105840000301FFE00300FFC003003F000000000071
:1058500000000000000000000007FE00003FFF8085
:1058600000FFFFE001E1C1E00183007003030030AD
:1058700002020010020200100203003003C3807015
:1058800001C1FFE001C0FFC000003F0000000000B8
:1058900000000000000000000070000003F00000A5
:1058A00003C0000003000000030003F003003FF00A
:1058B0000300FFF00307C000031F0000037800008F
:1058C00003E000000380000003000000000000006F
:1058D0000000000000000F80007C3FC000FE7FE061
:1058E00001FF7060038FC03003038010020380103B
:1058F0000201C0100200E0100301F0300383786061
:1059000001FE7FE000FE3FC000780F800000000035
:1059100000000000003F800000FFC0E001FFE0E069
:1059200001C0F0F00300301002001010020010104F
:105930000200103002003070030060E001C0E7C0D8
:1059400000FFFF80007FFE00001FF8000000000045
:105950000000000000000000000000000000000047
:10596000000000000000000000030060000780F05D
:10597000000780F0000780F00003006000000000D6
:105980000000000000000000000000000000000017
:105990000000000000000000000000000000000007
:1059A0000000000000000000000380760003807EFD
:1059B0000003807E000380780000000000000000EB
:1059C00000000000000000000000000000000000D7
:1059D0000000000000000000000000000000C00007
:1059E0000001E0000003300000061800000C0C006D
:1059F00000180600003003000060018000C000C0F5
:105A00000180006003000030020000100000000070
:105A1000000000000004100000041000000410004A
:105A20000004100000041000000410000004100026
:105A30000004100000041000000410000004100016
:105A40000004100000041000000410000004100006
:105A50000000000000000000020000100300003001
:105A60000180006000C000C00060018000300300C1
:105A700000180600000C0C0000061800000330009F
:105A80000001E0000000C000000000000000000075
:105A90000000000000000000003C000000FC0000CE
:105AA00001FC0000019C000003000060020000F007
:105AB00002007CF00200FCF00200C06003018000E4
:105AC0000183800001FF000000FE0000007C000058
:105AD000000000000007F800003FFF00007FFFC04B
