:020000040800F2
:10000000502600206D140008B1180008B31800082D
:10001000B7180008BB180008BF180008000000004F
:10002000000000000000000000000000C3180008ED
:10003000C518000800000000C7180008C91800080B
:100040008714000887140008871400088714000824
:100050008714000887140008871400088714000814
:100060008714000887140008871400088714000804
:100070008714000887140008591300088714000823
:100080008714000887140008871400080000000087
:1000900000000000000000000000000087140008BD
:1000A00087140008871400088714000887140008C4
:1000B00087140008871400088714000887140008B4
:1000C00087140008871400088714000887140008A4
:1000D00087140008E91800088714000800000000D1
:1000E0008714000887140008871400080000000027
:1000F000000000000000000000000000871400085D
:100100000000000087140008871400088714000806
:1001100000000000000000000000000000000000DF
:100120008714000887140008871400088714000843
:10013000871400080000000000000000000000001C
:10014000000000000000000000000000871400080C
:100150008714000887140008871400088714000813
:100160008714000887140008000000000000000049
:10017000000000000000000000000000000000007F
:1001800000000000871400080000000000000000CC
:100190008714000800F002F800F03CF80AA090E88C
:1001A000000C82448344AAF10107DA4501D100F032
:1001B00031F8AFF2090EBAE80F0013F0010F18BFC3
:1001C000FB1A43F001031847AC690000CC6900003A
:1001D000103A24BF78C878C1FAD8520724BF30C873
:1001E00030C144BF04680C60704700000023002445
:1001F00000250026103A28BF78C1FBD8520728BF37
:1002000030C148BF0B6070471FB501F031FC1FBD06
:1002100010B510BD01F0F9FB1146FFF7F5FF00F036
:1002200058F801F017FC03B4FFF7F2FF03BC01F02C
:100230004DFB000010B54FF6E0702849088001F032
:10024000EDF80446002C19D0012C05D1182324A266
:100250000A21084600F0F2FD022C05D1182324A241
:100260000A21084600F0EAFD032C05D1182325A237
:100270000A21084600F0E2FD00BFFEE7142001F06D
:1002800035FA00F0BBFF38B1182324A20A21084632
:1002900000F0D4FD00BFFEE710BD10B52448006893
:1002A00040F00700224908602248234908604FF4C3
:1002B000E1312248006801F051FB602001F0FAF9B9
:1002C00000F0B5FA00F0E2FDFFF7B4FF01F067F8C7
:1002D00010BDFFF7E2FF00BFFEE7000000000020B6
:1002E0004E6F20454550524F4D20466F756E64004D
:1002F000454550524F4D20577269746520457272C2
:100300006F720000454550524F4D20436865636B46
:1003100053756D204572726F720000004E6F204160
:1003200049433332303420466F756E64000000005C
:10033000303802400004FA050CED00E00400002013
:10034000704770479FED020A704770477047000082
:10035000000000004FF48061FE4A11804901FE4A0E
:10036000518340F47F01FB4A921E11600821FA4A32
:1003700051831183C901F74A921E118070474FF4CF
:100380008061F44A11804901F34A118340F47F01EE
:10039000F04A921E11600821EF4A51831183C9016E
:1003A000EC4A921E1180704710B504460B46204659
:1003B000FFF7D0FF1846FFF7E2FF10BD4FF4806251
:1003C000E44B1A805201E44B5A83E44AE14B9B1EF2
:1003D0001A600822E04B5A831A8312031A834FF4DF
:1003E0007F02DC4B9B1E1A600822DB4B5A831A8368
:1003F00040F47F02D74B9B1E1A600822D64B5A83CB
:100400001A834FF47F02D34B9B1E1A600822D24BF3
:100410005A831A83D14AC532CE4B9B1E1A600822DA
:10042000CD4B5A831A8312035A83CC4A521CC94BB0
:100430009B1E1A600822C84B5A831A8312031A8320
:100440004FF47F02C34B9B1E1A600822C24B5A8393
:100450001A8341F47F02BF4B9B1E1A600822BE4BD9
:100460005A831A834FF47F02BA4B9B1E1A600822EC
:10047000B94B5A831A83B94AC532B64B9B1E1A60D0
:100480000822B54B5A831A8312035A83B34A921C2B
:10049000B04B9B1E1A600822AF4B5A831A8312037B
:1004A0001A835211AB4B9B1E1A807047F0B506465B
:1004B00000274FF47F0040EA1624F0B240F47F0595
:1004C00000210846FFF77AFF4FF48060A1490880B9
:1004D0004001A149088300BF31E09E48801E0460AE
:1004E00008209D49488308839A48801E056008209B
:1004F000488308839748801E046008204883088347
:100500009448801E05600820488308839148801E17
:1005100004600820488308838E48801E05600820F8
:10052000488308838B48801E046008204883088322
:100530008848801E05600820488308837F1CB7F523
:10054000615FCAD34FF480608249891E0880F0BD84
:100550004FF480607F49891E08807E481638006805
:1005600040F2FF4188437B4916390860081F006844
:100570007B49084077491A3908600846006879497C
:10058000084374491A39086072481238006874497F
:10059000C94308436F491239086048F208006E49A0
:1005A00008830846406848F2080188436A49486061
:1005B0000846006820F0C00008600846806840F0E7
:1005C000C00088600846006820F040400860084687
:1005D000806840F0404088600846006840F0400075
:1005E00008600846006840F080400860704710B519
:1005F0000A2001F0B3F81120FFF7ACFE0A2001F049
:10060000ADF83620FFF7A6FE0020FFF7B8FE3A202F
:10061000FFF7A0FE0520FFF7B2FEB220FFF79AFE1B
:100620000C20FFF7ACFE0C20FFF7A9FE0020FFF71F
:10063000A6FE3320FFF7A3FE3320FFF7A0FEB7206E
:10064000FFF788FE3520FFF79AFEBB20FFF782FEFA
:100650003520FFF794FEC020FFF77CFE2C20FFF72B
:100660008EFEC220FFF776FE0120FFF788FEC32032
:10067000FFF770FE1320FFF782FEC420FFF76AFE2B
:100680002020FFF77CFEC620FFF764FE0F20FFF757
:1006900076FECA20FFF75EFE0F20FFF770FEC8202F
:1006A000FFF758FE0820FFF76AFE5520FFF752FEBD
:1006B0009020FFF764FED020FFF74CFEA420FFF748
:1006C0005EFEA120FFF75BFEE020FFF743FE7020F7
:1006D000FFF755FE0420FFF752FE0820FFF74FFEFC
:1006E0000920FFF74CFE0920FFF749FE0520FFF720
:1006F00046FE2A20FFF743FE3320FFF740FE41204D
:10070000FFF73DFE0720FFF73AFE1320FFF737FE05
:100710001320FFF734FE2920FFF731FE2F20FFF7CB
:100720002EFEE120FFF716FE7020FFF728FE0320C3
:10073000FFF725FE0920FFF722FE0A20FFF71FFE24
:100740000920FFF71CFE0620FFF719FE2B20FFF7FC
:1007500016FE09E01A040240000002402A00FF00D1
:100760000000CFFF555510003420FFF708FE412050
:10077000FFF705FE0720FFF702FE1220FFF7FFFD3F
:100780001420FFF7FCFD2820FFF7F9FD2E20FFF7CE
:10079000F6FD2120FFF7DEFD2920FFF7DBFD10BD70
:1007A000F948006840F00100F7490860F7484068E0
:1007B00020F48070F54948600846006820F4403015
:1007C00008600846006840F4003008600846406A47
:1007D00020F00F01ED484162406A40F00101EB4812
:1007E00041620020EA4908856420C862002048630D
:1007F0000846008B40F0600008830846008C40F0FB
:1008000001000884E2484430008840F40040A1F828
:1008100044000846008840F0010008800846808AAD
:1008200040F0010088827047D9494863704710B58D
:10083000FFF78EFEFFF7B4FFFFF7D9FE0020FFF7AA
:1008400035FE2820FFF7F0FF4FF6E070D149088011
:100850000020D149088010BD30B54FF48064CF4DE1
:100860002C806401C94D6C83CD4CCC4DAD1E2C60E9
:100870000824C64D6C832C8324032C834FF47F04FF
:10088000C64DAD1E2C600824C04D6C832C8340F4F3
:100890007F04C24DAD1E2C600824BC4D6C832C839C
:1008A0004FF47F04BD4DAD1E2C600824B74D6C8302
:1008B0002C83541E44F47F04B84DAD1E2C600824D4
:1008C000B24D6C832C8324036C83B54C641CB34DF4
:1008D000AD1E2C600824AD4D6C832C8324032C8327
:1008E0004FF47F04AD4DAD1E2C600824A74D6C83E2
:1008F0002C8341F47F04A94DAD1E2C600824A34D28
:100900006C832C834FF47F04A44DAD1E2C6008240F
:100910009E4D6C832C835C1E44F47F049F4DAD1E62
:100920002C600824994D6C832C8324036C839C4C8D
:10093000A41C9A4DAD1E2C600824944D6C832C830E
:1009400024032C836411954DAD1E2C8030BD70B5F1
:1009500005460E461446F1B2E8B2FFF72FFD4FF4FC
:1009600080608E4908802012FFF709FDE0B2FFF792
:1009700006FD4FF480608949891E088070BD10B55E
:100980004FF48063854C23805B01804C6383844BF0
:10099000824CA41E236008237C4C638323831B03A7
:1009A00023834FF47F037D4CA41E23600823774CE0
:1009B0006383238340F47F03784CA41E23600823C1
:1009C000724C638323834FF47F03744CA41E236013
:1009D00008236E4C63832383714BC5336F4CA41E75
:1009E00023600823694C638323831B0363836C4B5D
:1009F0005B1C6A4CA41E23600823644C638323831E
:100A00001B0323834FF47F03644CA41E236008233D
:100A10005E4C6383238341F47F03604CA41E2360F8
:100A200008235A4C638323834FF47F035B4CA41E3B
:100A300023600823554C63832383594BC533574C9C
:100A4000A41E23600823514C638323831B03638309
:100A5000534B9B1C514CA41E236008234B4C6383B7
:100A600023831B0323834FF47F0343EA22234B4C4E
:100A7000A41E23600823454C63832383D3B243F42D
:100A80007F03464CA41E23600823404C63832383CA
:100A9000DB01424CA41E238010BD2DE9F84F044613
:100AA0000D4616461F46DDF82880311B7A1B01FBD8
:100AB00002F000EBD071491000913B4632462946C6
:100AC0002046FFF7C9FE4FF47F0040EA182A08F0DD
:100AD000FF0040F47F0B4FF48060304908804001F4
:100AE0002A4908834FF000091EE02C48801EC0F8F8
:100AF00000A008202549488308832848801EC0F8A4
:100B000000B00820488308832448801EC0F800A055
:100B10000820488308832148801EC0F800B00820C0
:100B20004883088309F1010900988145DDD34FF41A
:100B300080601A49891E0880BDE8F88F2DE9F047CA
:100B40008046894615469A463620FFF703FCBAF1DF
:100B5000300F02D02020FFF712FCBAF1100F60D145
:100B6000A5F12000C5B208F10800C3B209F11000D8
:100B7000C2B241464846FFF76FFE4FF48060074916
:100B80000880002446E00000443802400000024093
:100B90000000014000000020020000201A04024072
:100BA0002A00FF00B14800EB0510065D00272EE08B
:100BB00006F08000A0B1AE48407840F47F00AD4917
:100BC00008600820AC4948830883A948007840F4AD
:100BD0007F00A84908600820A7494883088313E0DC
:100BE000A648407840F47F00A24908600820A24946
:100BF00048830883A148007840F47F009D4908603D
:100C000008209D49488308837006060E7F1C082F24
:100C1000CED3641C102CC5D34FF480609549088056
:100C200004E1BAF1180F54D1A5F12000C5B208F1C2
:100C30000C00C3B209F11800C2B241464846FFF7A2
:100C40000BFE4FF480608B49891C0880002439E03A
:100C500005EBC5008A4901EB8000065D00272EE008
:100C600006F08000A0B18248407840F47F008149BE
:100C7000086008208049488308837D48007840F454
:100C80007F007C49086008207B494883088313E083
:100C90007A48407840F47F00764908600820764919
:100CA000488308837548007840F47F0071490860E4
:100CB00008207149488308837006060E7F1C082FA0
:100CC000CED3641C242CC3D34FF4806069490880C0
:100CD000ACE0BAF1200F52D1A5F12000C5B208F165
:100CE0001000C3B209F12000C2B241464846FFF7E6
:100CF000B3FD4FF480605F49891C0880002437E011
:100D0000604800EB8510065D00272EE006F08000AD
:100D1000A0B15748407840F47F0056490860082049
:100D20005549488308835248007840F47F00514970
:100D30000860082050494883088313E04F484078F2
:100D400040F47F004B49086008204B4948830883E2
:100D50004A48007840F47F00464908600820464928
:100D6000488308837006060E7F1C082FCED3641CB0
:100D7000402CC5D34FF480603E49088056E0BAF15C
:100D8000300F53D1A5F12000C5B209F12300C3B241
:100D900008F11800C2B249464046FFF75DFD4FF426
:100DA00080603449891C0880002439E005EBC500C7
:100DB000354901EB0010065D00272EE006F08000AB
:100DC000A0B12B48407840F47F002A4908600820F1
:100DD0002949488308832648007840F47F00254944
:100DE0000860082024494883088313E0234840789A
:100DF00040F47F001F49086008201F49488308838A
:100E00001E48007840F47F001A49086008201A49FB
:100E1000488308837006060E7F1C082FCED3641CFF
:100E2000692CC3D34FF48060124908803620FFF745
:100E300091FA0020FFF7A3FABDE8F087F0B5064667
:100E40000F4614461D460CE014F8012B2B4639467C
:100E50003046FFF773FE284605EBD07106EB6101C3
:100E6000CEB220780028EFD1F0BD00007A1A000839
:100E70000000002018040240000002400200002090
:100E8000C62D0008223B0008E2490008D848006847
:100E900040F40010D6490860D648006840F440701D
:100EA000D4490860081F006820F47020091F0860FA
:100EB0000846006840F4202008600846406A20F098
:100EC000FF01CC48001F4162406A40F04401C9481C
:100ED000001F41624FF40040C7490880002008808D
:100EE0003020091D08804CF20500C3491C310880E0
:100EF0000520091D08800120BF490880704730B5D2
:100F000002464FF47A73BC4C1834248804F002046F
:100F1000002C3CD1B84C248844F48074B64D2C800D
:100F200000BFB54C1434248804F00104002CF8D020
:100F3000B14C1034228019E0AF4C14342188241DA8
:100F4000248801F00204022C01D101200FE001F4F9
:100F50008064B4F5806F05D10024A74D14352C8032
:100F6000002004E05B1E0BB9002000E0E4E700BFB6
:100F7000A14C248844F400749F4D2C8000BF9E4CEB
:100F80001834248804F00204022CF8D000E0002079
:100F900030BD10B500BF984B18331B8803F0020317
:100FA000022BF8D0944B1B8843F48073924C23801F
:100FB00000BF914B14331B8803F00103002BF8D0C2
:100FC0008D4B1033188000BF8B4B14331B8803F0FC
:100FD0000203002BF8D0884B18331B88864B103344
:100FE000198000BF844B14331B8803F08403842BC7
:100FF000F8D1814B10331A8000BF7F4B14331B880C
:1010000003F08403842BF8D17B4B1B8843F40073DB
:10101000794C238010BD30B500BF774C183424883C
:1010200004F00204022CF8D0734C248844F4807439
:10103000714D2C8000BF704C1434248804F00104DE
:10104000002CF8D06C4C1034208000BF6A4C143453
:10105000248804F00204002CF8D0674C183424884B
:10106000654C1034218000BF634C1434248804F094
:101070008404842CF8D10CE000BF5F4C1434248825
:1010800004F08004802CF8D114785B4D10352C804E
:10109000521C1C1EA3F10103EED100BF564C1434A8
:1010A000248804F08404842CF8D1534C248844F41C
:1010B0000074514D2C8030BD00BF4F4A1832128849
:1010C00002F00202022AF8D04B4A128842F48072DF
:1010D000494B1A8000BF484A1432128802F00102BC
:1010E000002AF8D0444A1032108000BF424A14321D
:1010F000128802F00202002AF8D03F4A1832128801
:101100003D4A1032118000BF3B4A1432128802F06F
:101110008402842AF8D1384A128842F48072364B0D
:101120001A8000BF344A1432128802F00102002AE9
:10113000F8D040F00102304B10331A8000BF2E4A25
:101140001432128802F00202002AF8D02A4A183219
:101150001288704730B504460D4629462046FFF7F1
:10116000ABFF2548008820F48060234908800846AA
:10117000008840F40070088000BF1F4814300088C9
:1011800000F040000028F8D01B4810300088C0B2A2
:1011900030BDF0B506460F4614461D46394630466A
:1011A000FFF78AFF1448008840F4806012490880E5
:1011B00018E055B91048008820F480600E49088076
:1011C0000846008840F40070088000BF0A481430C8
:1011D000008800F040000028F8D007481030008850
:1011E0002070641C281EA5F10105E2D1F0BD0000AD
:1011F00040380240040402400054004010B5302042
:10120000FFF77DFE08B9012010BD0020FCE77448FF
:10121000006840F4804072490860714810380068E6
:1012200040F400106E49103908606E486C49443132
:1012300008606B484038006840F080606849403979
:1012400008606948006820F07F4067490860664888
:101250000830006840F07F40634908310860624808
:10126000006840F02A4060490860081D006820F4CA
:101270007040091D0860081F406A81B25A484162E7
:10128000406A5A4908435849486200BF54484038A8
:10129000006800F000600028F8D040F20B105449BC
:1012A00008804FF42060091F0880022050491C3933
:1012B00008804FF410604F49088001204D491839CB
:1012C000088002204B4908804A480C384A49086681
:1012D0004A48486600F5006088660815C86505201C
:1012E000C866474888654248103888674548C867D7
:1012F00000F5006040498031086008153E494867A4
:101300000520C1F88400404808674FF0E020D0F87D
:10131000000140F480404FF0E021C1F8000160215D
:101320003A4801703248001F008840F4806030491C
:10133000091F08802F48008840F480602D490880EC
:101340002D48806D40F001002B4988650846006FEC
:1013500040F001000867704710B52748006800F0AA
:101360000060B0F1006F13D12348806D00F40020BD
:10137000B0F5002F06D14FF4806222491F48FEF7D6
:10138000E4FF05E04FF4806221492248FEF7DDFFCB
:101390001948806840F074601749886010BD70B5C6
:1013A0003025FFF734FF002211463020FFF7F1FD12
:1013B000012211463020FFF7ECFD012000F0CEF9AC
:1013C00000240AE0144800EB44004278124810F868
:1013D00014103020FFF7DDFD641CAC42F2D370BD69
:1013E00040380240006A00300004024000005556B8
:1013F000203800401C3400400060024024000020DF
:10140000302C060624100020602C05000EE400E0BD
:101410002418002024080020126B000810B5A0201A
:10142000FFF76DFD08B9012010BDFF21A020FFF7D7
:1014300091FE5A280FD05A22FF21A020FFF7A9FDC4
:10144000052000F08BF9FF21A020FFF783FE5A282A
:1014500001D00220E8E74FF48073034A0021A02066
:10146000FFF797FE0020DFE724200020094880478F
:1014700009480047FEE7FEE7FEE7FEE7FEE7FEE776
:10148000FEE7FEE7FEE7FEE704480549034A054B91
:1014900070470000811500089501000850220020C7
:1014A00050260020502200200CB500200190009012
:1014B0007548006840F480307349086000BF724886
:1014C000006800F4003000900198401C01900098E2
:1014D00018B90198B0F5A04FF1D16B48006800F43D
:1014E000003010B10120009001E000200090009831
:1014F000012844D164484030006840F0805062497F
:10150000403108606148006840F440405F4908602D
:101510005D48083000685C4908310860084600688A
:1015200008600846006840F4805008605848091F69
:101530000860081F006840F08070091F086000BF45
:101540005148006800F000700028F9D040F20270A5
:10155000504908604C480830006820F003004A49B0
:10156000083108600846006840F00200086000BFCB
:1015700045480830006800F00C000828F8D10CBD80
:1015800010B54548006840F47000434908603E4883
:10159000006840F001003C49086000203A490831E9
:1015A0000860394800683D490840374908603C48B0
:1015B000091D0860081F006820F48020091F0860CA
:1015C000002031490C310860FFF76EFF4FF00060DA
:1015D00031498039086010BD70B500200022022317
:1015E00000240221284D08352D6805F00C0020B19B
:1015F000042806D0082834D107E02A4D2A4E356049
:1016000033E02A4D284E35602FE01F4D2D1D2D68EB
:10161000C5F380541C4D2D1D2D6805F03F0154B1BC
:10162000224DB5FBF1F5184E361D3668C6F3881607
:1016300005FB06F209E01B4DB5FBF1F5124E361D18
:101640003668C6F3881605FB06F20F4D2D1D2D6872
:10165000C5F301456D1C6B00B2FBF3F5124E35600E
:1016600003E0104D104E356000BF00BF064D083539
:101670002D68C5F303150E4E705D0B4D2D68C540EA
:10168000094E356070BD0000003802400070004017
:101690000C604108003C024088ED00E0FFFFF6FED0
:1016A000103000240024F4000400002000127A000E
:1016B000080000204FF0E021096921F004014FF0FB
:1016C000E0221161C21700EB5272C2F3C702314B24
:1016D0001A701946097801EB4102C2EBC1114FF6AD
:1016E000FF7202EAC1012C4A118070470146294A63
:1016F00012784A434FF0E0235A6100229A61012296
:101700001A6100BF4FF0E022106900F001021AB127
:1017100000F48032002AF5D000224FF0E0231A6155
:101720009A61704701461C4A12884A434FF0E023F1
:101730005A6100229A6101221A6100BF4FF0E02233
:10174000106900F001021AB100F48032002AF5D0CD
:1017500000224FF0E0231A619A61704770B5044689
:101760004FF4077094FBF0F0C6B24FF4077094FB8F
:10177000F0F100FB114085B205E04FF40770FFF770
:10178000D1FF701EC6B2002EF7D115B12846FFF763
:10179000C9FF70BD180000201A0000204A0A52023A
:1017A00002433E4B1A6070470146072323EA0102B9
:1017B00012023A4B1B1D18684FF6FF031840384BB6
:1017C00018431043354B1B1D186070472DE9F0413D
:1017D0000746884614461D462846FFF7E5FFC5F133
:1017E000040007FA00F60F20284100EA080006432B
:1017F00006F00F06E21704EBD2625211920002F1DA
:10180000E022D2F800212146E31704EBD3635B11F9
:10181000A4EB431C012303FA0CF31A432046E317FD
:1018200004EBD3635B119B0003F1E023C3F80021B9
:101830001C48005D40EA06101A490855BDE8F081D1
:1018400030BF704772B6704762B6704700B5134834
:101850000830006840F00400104908310860124860
:10186000006840F08050104908601048406840F41B
:1018700080700E4948600846006840F00400086027
:101880000846006840F002000860FFF7D9FF00BD7D
:101890000348001D0149091D0860704708ED00E07C
:1018A0000000FA0500E400E040380240007000400B
:1018B000704700BFFEE700BFFEE700BFFEE700BFC6
:1018C000FEE77047704770477047000000BF7047E1
:1018D00000BF454A128802F04002002AF9D0C2B285
:1018E000414B1B1D1A8070474049098801F02001B7
:1018F00009B33E498988C8B23D49098801F40041CD
:10190000C9B93B49098801F4804161B10A2803D073
:101910000021374A118020E03549098841F400410F
:10192000334A118019E00D2806D13149098841F464
:1019300080412F4A118010E02D490988C1F30D0123
:101940002C4A50542A490988491C294A11801146B9
:101950000988C72901DD00211180704770B505464F
:101960000C462548006840F0100023490860B5FB8C
:10197000F4F01E490881082088810846808940F0DB
:10198000040088810846808940F020008881022375
:10199000252203210846FFF719FF1848006820F4A4
:1019A0007010164908600846806840F4701088601E
:1019B0000846006840F4201008600846406820F49B
:1019C000C06048600846406A20F47F610B4841626D
:1019D000406A40F4EE61094841620448808940F45D
:1019E00000500249888170BD004400400010014051
:1019F0002000002024210020443802400000024042
:101A000070477047704770477047754600F02CF874
:101A1000AE4605006946534620F00700854618B0DB
:101A200020B5FFF731FDBDE820404FF000064FF034
:101A300000074FF000084FF0000B21F00701AC4603
:101A4000ACE8C009ACE8C009ACE8C009ACE8C00922
:101A50008D46704710B50446AFF300802046BDE8C0
:101A60001040FEF7E0BB000000487047EC2100206A
:101A70004FF04070E1EE100A7047000000000000D7
:101A80000000000000000000000000000000000056
:101A90001FCC000C00000000000000000800300017
:101AA00060000800300060000000022003FC1E20DF
:101AB000022003FC1E200220000000000E1811046A
:101AC0003FFF10840C78000000000F0010840F38D6
:101AD00000C0077818840078000000780F8410C4D4
:101AE00011240E9800E400840008080068007000CB
:101AF00000000000000000000000000000000000E6
:101B000007E01818200440020000000040022004F2
:101B1000181807E0000000000000024002400180A9
:101B20000FF0018002400240000000800080008031
:101B30000FF800800080008000000001000D000E02
:101B40000000000000000000000000000080008095
:101B5000008000800080008000800000000C000CED
:101B60000000000000000000000000000006001857
:101B700000600180060018002000000007F008083F
:101B800010041004080807F000000000080408040E
:101B90001FFC000400040000000000000E0C1014E4
:101BA0001024104411840E0C000000000C181004C6
:101BB0001104110412880C700000000000E00320E2
:101BC000042408241FFC0024000000001F98108437
:101BD00011041104108810700000000007F008883C
:101BE0001104110418880070000000001C0010008F
:101BF00010FC13001C001000000000000E381144FF
:101C00001084108411440E38000000000700088C76
:101C100010441044088807F0000000000000000095
:101C2000030C030C00000000000000000000000195
:101C300001060000000000000000000000800140DC
:101C400002200410080810040000022002200220D4
:101C500002200220022002200000000010040808D8
:101C60000410022001400080000000000E0012005D
:101C7000100C106C10800F00000003E00C1813E42F
:101C8000142417C4082807D000000004003C03C433
:101C90001C40074000E4001C000410041FFC110459
:101CA000110411040E880070000003E00C181004E9
:101CB0001004100410081C10000010041FFC100475
:101CC00010041004080807F0000010041FFC1104A1
:101CD000110417C410040818000010041FFC11049C
:101CE000110017C010000800000003E00C181004D9
:101CF000100410441C780040000010041FFC1084E5
:101D00000080008010841FFC1004000010041004E8
:101D10001FFC10041004000000000003000110016B
:101D200010011FFE10001000000010041FFC110421
:101D300003801464181C1004000010041FFC10041D
:101D4000000400040004000C000010041FFC1F002D
:101D500000FC1F001FFC1004000010041FFC0C04FA
:101D6000030000E010181FFC100007F00808100422
:101D700010041004080807F0000010041FFC108471
:101D80001080108010800F00000007F00818102449
:101D90001024101C080A07F2000010041FFC110494
:101DA000110011C011300E0C000400000E1C1104B3
:101DB0001084108410441C38000018001000100417
:101DC0001FFC100410001800000010001FF8100481
:101DD0000004000410041FF8100010001E0011E0A1
:101DE000001C007013801C0010001FC0103C00E09D
:101DF0001F0000E0103C1FC000001004180C163437
:101E000001C001C01634180C100410001C0013048B
:101E100000FC13041C00100000000804101C1064D7
:101E2000108413041C0410180000000000000000BF
:101E30007FFE4002400240020000000030000C0023
:101E400003800060001C000300000000400240020C
:101E500040027FFE000000000000000000002000A3
:101E6000400040004000200000000001000100018F
:101E700000010001000100010001000040004000DD
:101E80002000000000000000000000000098012475
:101E900001440144014400FC000410001FFC0088C0
:101EA0000104010400880070000000000070008838
:101EB0000104010401040088000000000070008893
:101EC0000104010411081FFC0004000000F8014493
:101ED00001440144014400C8000000000104010461
:101EE0000FFC1104110411001800000000D6012994
:101EF0000129012901C90106000010041FFC00840A
:101F000001000100010400FC0004000001041904A8
:101F100019FC0004000400000000000000030001A0
:101F20000101190119FE0000000010041FFC00242B
:101F3000004001B4010C0104000000001004100472
:101F40001FFC0004000400000000010401FC010467
:101F5000010001FC0104010000FC010401FC0084FB
:101F600001000100010400FC0004000000F801046D
:101F700001040104010400F80000010101FF0085D3
:101F80000104010400880070000000000070008857
:101F900001040104010501FF00010104010401FC29
:101FA00000840104010001800000000000CC012435
:101FB0000124012401240198000000000100010017
:101FC00007F80104010400000000010001F800040A
:101FD00000040004010801FC0004010001800170FC
:101FE000000C001001600180010001F0010C0030C4
:101FF00001C00030010C01F0010000000104018C5F
:1020000000740170018C0104000001010181017163
:10201000000E001801600180010000000184010C25
:10202000013401440184010C0000000000000000A4
:10203000000001003EFC40024002000000000000E1
:102040000000FFFF0000000000000000400240020E
:102050003EFC010000000000000000006000800065
:102060008000400040002000200000000000000030
:102070000000000000000000000000000000000060
:102080000000000000000000000000000000000050
:10209000000000000000000000000000000F803879
:1020A0000FFE380F80380000000000000000000024
:1020B00000000000000000000100000600000C000D
:1020C000003800003100000600000C00003800005D
:1020D0003000000000000000000061800067F80789
:1020E000F98000618000618000618000618000678C
:1020F000F807F98000618000000000000000000087
:1021000001C0E003E0F00630080418081FFFFE04D9
:102110000E080787F00381E000000000000001F0D6
:1021200000060C00040408060C7001F9C0000E0043
:10213000003BE000EC18070808040C180003E0005E
:1021400000000001E00007F003F818041C08041761
:102150000807E1D003C0E00023B0003C08002008DD
:1021600000001000000000000001000031000032FB
:1021700000001C0000000000000000000000000043
:10218000000000000000000000000000000000004F
:10219000000000000000000000007F0001FFC007F9
:1021A00080F00C0018100004200002000000000065
:1021B000002000021000040C00180780F001FFC08E
:1021C000007F000000000000000000000000000090
:1021D0000000000000004200006600006600003CB5
:1021E0000000180003FFC0001800003C000066005B
:1021F0000066000042000000000008000008000027
:10220000080000080000080001FFC00008000008E6
:1022100000000800000800000800000000000001A5
:1022200000003100003200001C000000000000002F
:10223000000000000000000000000000000000009E
:102240000000080000080000080000080000080066
:102250000008000008000008000008000008000056
:1022600000000000000000000000380000380000FE
:102270003800000000000000000000000000000026
:1022800000000000000000000000000600001C002C
:102290000070000180000E0000380000C000070040
:1022A000001C0000300000000000000000007F80E3
:1022B00001FFE0038070060018040008040008060F
:1022C000001803807001FFE0007F80000000000024
:1022D0000000000001000801000801000803FFF8E9
:1022E00007FFF800000800000800000800000000D8
:1022F000000000000001C03802C05804009804012A
:1023000018040218040418061C1803F81801E0F851
:1023100000000000000000000001C0E003C0F00465
:10232000000804080804080806180803F41801E760
:10233000F00001E0000000000000000000000300C9
:10234000000D000011000061000081080301080772
:10235000FFF80FFFF800010800010800000000006E
:10236000000000E007FCD006080806100806100868
:10237000061008061838060FF00607C00000000017
:102380000000000000003F8001FFE00384300208ED
:1023900018041008041008041008071810030FF0A0
:1023A0000007C000000000000000000003C000079C
:1023B00000000600000600F80607F806180006E010
:1023C0000007000006000000000000000001E1E03E
:1023D00003F7F0063410041808041808040C080465
:1023E0000C0806161803F3F001C1E000000000001D
:1023F0000000F80003FC3003063804020804020859
:102400000402080404100308F001FFC0007F00006C
:1024100000000000000000000000000000000000BC
:1024200000007038007038007038000000000000B4
:10243000000000000000000000000000000000009C
:10244000000000000000301A00301C0000000000F6
:10245000000000000000000000000000000000007C
:1024600000080000140000220000410000808001EC
:1024700000400200200400100800080000000000D6
:1024800000002100002100002100002100002100A7
:102490000021000021000021000021000021000097
:1024A0000000000000000000080008040010020006
:1024B0002001004000808000410000220000140044
:1024C00000080000000000000003C00004C0000479
:1024D0000000080038080F380808380810000C30D1
:1024E0000007E00003C000000000000000003F8083
:1024F00000FFE0038070020F1006708804C088049B
:102500008308047F8802C09003012000FE40000081
:10251000080000180001F8003E0801C20007020090
:1025200007E20000FE00001FC80001F800003800AC
:10253000000804000807FFF807FFF804080804086B
:102540000804080804080806180803F41801E7F04E
:102550000001E0000000000000003F8001FFE003F8
:102560008070020018040008040008040008040039
:10257000100600200780C000000004000807FFF8D4
:1025800007FFF8040008040008040008040018020B
:10259000001003807001FFE0007F80000000040055
:1025A0000807FFF807FFF8040808040808040808EB
:1025B000040808043E080400080600180100600032
:1025C000000004000807FFF807FFF80408080408E3
:1025D00000040800040800043E0006000006000095
:1025E000018000000000000000003F8001FFE003C8
:1025F00080700600180400080402080402080203A0
:10260000F00783F000020000020004000807FFF852
:1026100007FFF80408080008000008000008000090
:10262000080004080807FFF807FFF8040008000086
:102630000000000004000804000804000807FFF878
:1026400007FFF80400080400080400080000000068
:102650000000000000000006000007000001040068
:102660000104000104000307FFFE07FFFC04000053
:1026700004000004000004000807FFF807FFF80446
:102680000C08001800003E0004C7800503C80600BF
:10269000F804003804001800000804000807FFF8D8
:1026A00007FFF80400080000080000080000080008
:1026B000000800000800001800006000000004008E
:1026C0000807FFF807800807FC00007FC00003F838
:1026D0000007C000780007800807FFF807FFF8042C
:1026E000000804000807FFF807000803C00000E026
:1026F00000003800001E000007000001C00400F0C8
:1027000007FFF8040000000000007F8001FFE003E5
:102710008070060018040008040008060018030072
:102720003001FFE0007F8000000004000807FFF890
:1027300007FFF8040408040400040400040400046F
:102740000400060C0003F80001F000000000000087
:1027500000007F8001FFE00380700600880400888D
:102760000400C806003C03003E01FFE6007F840031
:10277000000004000807FFF807FFF8040808040831
:1027800000040C00040F00040BC00610F003F03826
:1027900001E00800000800000001E0F803F0300646
:1027A0003010041808041808040C08040C08020669
:1027B000180207F00781E000000001800006000019
:1027C00004000004000004000807FFF807FFF804F5
:1027D000000804000004000006000001800004005E
:1027E0000007FFE007FFF0040018000008000008E1
:1027F00000000800000800000804001007FFE004C3
:10280000000004000006000007E00007FE00041FAF
:10281000E00001F80000380001E0043E0007C000BD
:1028200006000004000004000007E00007FFC004E9
:102830001FF80007C007F80007FF80043FF80007F3
:10284000C004F800070000040000000000040008B5
:1028500006001807C07805F1C8003E00001F80047C
:1028600063E80780F8060018040008000000040070
:102870000006000007800007E008047C08001FF83D
:102880000007F800180804E008070000060000042C
:1028900000000000000100080600380400F80403EE
:1028A000E8040F08047C0805F00807C008070018B2
:1028B00004006000000000000000000000000000B4
:1028C00000000000003FFFFE200002200002200068
:1028D00002200002200002000000000000000000B2
:1028E00008000007000000C00000380000060000DB
:1028F00001C000003000000E0000010000000000D8
:10290000000000002000022000022000022000023F
:102910002000023FFFFE0000000000000000000059
:10292000000000000000000000000008000010008F
:1029300000300000200000300000100000080000FF
:102940000000000000000000010000010000010084
:102950000001000001000001000001000001000072
:102960000100000100000100000100000000000063
:1029700000000020000020000010000010000000F7
:102980000000000000000000000000000000000047
:10299000000000F00019F8001B18002208002608AB
:1029A000002408002410003FF8001FF80000080071
:1029B000001800000004000007FFF80FFFF00018E7
:1029C00018001008002008002008003018001FF030
:1029D000000FC00000000000000007C0001FF00052
:1029E0001830002008002008002008003C08001CC7
:1029F000100000600000000000000000000007C0A0
:102A0000001FF000381800200800200800200804EB
:102A1000101007FFF80FFFF000001000000000008A
:102A2000000000000007C0001FF000123000221854
:102A3000002208002208003208001E10000E2000AC
:102A4000000000000000200000200800200801FF16
:102A5000F803FFF8062008042008042008072000D7
:102A600003000000000000000000000E000E6E00D9
:102A70001FF30031B10020B10020B1003191001FDF
:102A800013002E1E00200E0030000000000400087D
:102A900007FFF80FFFF800100800200000200000DA
:102AA0002008003FF8001FF80000080000000000A8
:102AB00000000000002008002008002008063FF861
:102AC000063FF800000800000800000800000000B1
:102AD00000000000000000000000030000030020D0
:102AE00001002001002003063FFE063FFC0000001D
:102AF00000000000000000000004000807FFF80FBD
:102B0000FFF8000188000300002FC00038F8002003
:102B1000380020080000080000000000000000004D
:102B200004000804000804000807FFF80FFFF8007D
:102B3000000800000800000800000000000000205D
:102B400008003FF8003FF8001008002000003FF8A0
:102B5000003FF8001008002000003FF8003FF80098
:102B60000008000000002008003FF8003FF80010B7
:102B700008001000002000002008003FF8001FF8A7
:102B80000000080000000000000007C0000FF00077
:102B90001830003008002008002008003008001815
:102BA00030000FF00007C00000000000000020010E
:102BB000003FFF003FFF0010110020090020080027
:102BC0002008003038001FF0000FC0000000000097
:102BD000000007C0001FF00038180020080020087F
:102BE000002009001011001FFF003FFF000001003E
:102BF0000000002008002008002008003FF8003FE7
:102C0000F80008080010080020080020000030002C
:102C1000003000000000000000000000000C780000
:102C20001E18003308002308002108002188002115
:102C3000980030F000386000000000000000200024
:102C400000200000200000FFF003FFF80020080033
:102C500020080020080000300000000000000000F4
:102C600000002000003FF0007FF80000180000087E
:102C7000000008002010003FF8007FF00000100066
:102C80000000000000002000003000003C00003F79
:102C9000800023F0000078000070002380003C00DA
:102CA000003000002000002000003C00003FE00059
:102CB00023F80000E0002700003E00003FE0002174
:102CC000F80001E0003E00002000000000002008A5
:102CD000002008003838003E680027800003C80044
:102CE0002CF80038380020180020080000000000F0
:102CF00000002000003003003C01003F830023EC73
:102D0000000070002380003C000020000020000034
:102D100000000000000000000038080020380020FB
:102D2000F80023E8002F88003E080038080020182B
:102D30000000700000000000000000000000000023
:102D400000000000000008000014001FF7FC300025
:102D5000062000020000000000000000000000004B
:102D6000000000000000000000000000FFFFFF0066
:102D70000000000000000000000000000000000053
:102D8000000000002000023000061FF7FC001400C5
:102D9000000800000000000000000000000000002B
:102DA000000000000018000060000040000040002B
:102DB00000200000100000080000040000040000D3
:102DC0000C000010000000000000000000000000E7
:102DD00000000000000000000000000000000000F3
:102DE00000000000000000000000000000000000E3
:102DF0000000000000000000000F80380FFE380FB8
:102E0000803800000000000000000000000000000A
:102E1000000000000100000600000C000038000067
:102E20003100000600000C000038000030000000F7
:102E3000000000000000000001000001800003808D
:102E40003003C03007C03007E0300FE0300FF03003
:102E50000FF030018030018030018030018030017E
:102E6000803001803001803001C07000E0E0007FE0
:102E7000E0003F80000000000000000C00000E0099
:102E8000001F0000FF8003FFE007FFE00FFFC00FFF
:102E9000FF801FEF001C0E003808023000042000E5
:102EA0000C40101C00703800F7F801FFF003FFF031
:102EB00007FFE007FFC001FF0000F80000700000FE
:102EC00030000000000100003100003200001C0052
:102ED00000000000000000000000000000000000F2
:102EE0000000000000000000000003C0003FE011EF
:102EF000F0603980607C0060D60C60100C60108C33
:102F000060108C60108C60108C60108C60108C6075
:102F1000108C601084601080601081E81000F81040
:102F20000470107C601BF0000F0000000000000027
:102F3000000061800067F807F9800061800061800F
:102F40000061800061800067F807F98000618000FF
:102F50000000000000000800000800000800000851
:102F60000000080001FFC000080000080000080081
:102F7000000800000800000000000001000031000F
:102F8000003200001C0000000000000000000000F3
:102F90000000000000000000000000000000080029
:102FA00000080000080000080000080000080000F9
:102FB00008000008000008000008000000000000F1
:102FC0000000000000003800003800003800000059
:102FD00000000000000000000000000000000000F1
:102FE000000000000000000600001C00007000014E
:102FF00080000E0000380000C0000700001C000028
:10300000300000000000000000007F8001FFE003AE
:1030100080700600180400080400080600180380E9
:103020007001FFE0007F8000000000000000000051
:1030300001000801000801000803FFF807FFF8007D
:103040000008000008000008000000000000000068
:103050000001C03802C05804009804011804021886
:10306000040418061C1803F81801E0F8000000001A
:10307000000000000001C0E003C0F00400080408E4
:103080000804080806180803F41801E7F00001E036
:10309000000000000000000000000300000D000020
:1030A000110000610000810803010807FFF80FFF0D
:1030B000F80001080001080000000000000000E026
:1030C00007FCD006080806100806100806100806B7
:1030D0001838060FF00607C00000000000000000CE
:1030E00000003F8001FFE00384300208180410084C
:1030F000041008041008071810030FF00007C000A0
:10310000000000000000000003C0000700000600EF
:10311000000600F80607F806180006E000070000A1
:1031200006000000000000000001E1E003F7F006E7
:103130003410041808041808040C08040C080616B7
:103140001803F3F001C1E000000000000000F800E7
:1031500003FC3003063804020804020804020804D1
:1031600004100308F001FFC0007F00000000000011
:1031700000000000000000000000000000007038A7
:1031800000703800703800000000000000000000EF
:10319000000000000000000000000000000000002F
:1031A0000000301A00301C00000000000000000089
:1031B0000000000000000000000300000700000EF7
:1031C00000001C00003FFFF83FFFF81C00000E004D
:1031D00000070000030000000000000000002100C4
:1031E000002100002100002100002100002100003A
:1031F000210000210000210000210000000000004B
:10320000000000C00000E00000700000381FFFFC5C
:103210001FFFFC0000380000700000E00000C0004C
:10322000000000000003C00004C00004000008000B
:1032300038080F380808380810000C300007E00084
:1032400003C000000000000000003F8000FFE0031A
:103250008070020F1006708804C088048308047F01
:103260008802C09003012000FE4000000800001802
:103270000001F8003E0801C20007020007E200005A
:10328000FE00001FC80001F800003800000804001C
:103290000807FFF807FFF8040808040808040808EE
:1032A00004080806180803F41801E7F00001E0001C
:1032B0000000000000003F8001FFE003807002007A
:1032C0001804000804000804000804001006002088
:1032D0000780C000000004000807FFF807FFF8049B
:1032E000000804000804000804001802001003800D
:1032F0007001FFE0007F8000000004000807FFF875
:1033000007FFF8040808040808040808040808046B
:103310003E080400080600180100600000000400D8
:103320000807FFF807FFF80408080408000408006D
:10333000040800043E0006000006000001800000B2
:103340000000000000003F8001FFE00380700600E5
:10335000180400080402080402080203F00783F0BE
:1033600000020000020004000807FFF807FFF8044D
:103370000808000800000800000800000800040811
:103380000807FFF807FFF80400080000000000002D
:1033900004000804000804000807FFF807FFF80409
:1033A00000080400080400080000000000000000FD
:1033B00000000006000007000001040001040001F5
:1033C00004000307FFFE07FFFC04000004000004E4
:1033D000000004000807FFF807FFF8040C080018B5
:1033E00000003E0004C7800503C80600F80400384A
:1033F00004001800000804000807FFF807FFF8049D
:103400000008000008000008000008000008000094
:103410000800001800006000000004000807FFF822
:1034200007800807FC00007FC00003F80007C00009
:10343000780007800807FFF807FFF8040008040079
:103440000807FFF807000803C00000E0000038008C
:10345000001E000007000001C00400F007FFF80490
:103460000000000000007F8001FFE0038070060084
:103470001804000804000806001803003001FFE0EB
:10348000007F8000000004000807FFF807FFF80431
:103490000408040400040400040400040400060CEE
:1034A0000003F80001F000000000000000007F8031
:1034B00001FFE00380700600880400880400C8064D
:1034C000003C03003E01FFE6007F84000000040092
:1034D0000807FFF807FFF8040808040800040C00B8
:1034E000040F00040BC00610F003F03801E00800E0
:1034F000000800000001E0F803F030063010041866
:1035000008041808040C08040C080206180207F046
:103510000781E000000001800006000004000004B4
:10352000000004000807FFF807FFF8040008040083
:103530000004000006000001800004000007FFE016
:1035400007FFF00400180000080000080000080051
:10355000000800000804001007FFE0040000040059
:103560000006000007E00007FE00041FE00001F86D
:103570000000380001E0043E0007C000060000041F
:10358000000004000007E00007FFC0041FF8000768
:10359000C007F80007FF80043FF80007C004F800E8
:1035A00007000004000000000004000806001807DF
:1035B000C07805F1C8003E00001F800463E8078062
:1035C000F8060018040008000000040000060000CF
:1035D00007800007E008047C08001FF80007F800D7
:1035E000180804E0080700000600000400000000BE
:1035F000000100080600380400F80403E8040F087E
:10360000047C0805F00807C00807001804006000E3
:103610000000000000000100080102080106080186
:103620000408010C0801187FFF387FFF703FFF601E
:103630000891600891000891000891000891007FAE
:10364000FF407FFF6028013008013808011C080393
:103650001E08030E0001000000000000000004002E
:10366000001C0000780001E0000FFFFE7FFFFE78E5
:10367000A00020200000600003FFFC03FFFC0240CC
:103680000400C0047FFFC47FFFC4208204018204C1
:1036900001030403FF0403FF0401007C00007C001D
:1036A000000800000100000100000100000100000E
:1036B0000100000100000100000100000100000104
:1036C00000000100000100000000000000000020D8
:1036D00000002000001000001000000000000000AA
:1036E000000000000000000000000000000000F0EA
:1036F0000019F8001B180022080026080024080002
:103700002410003FF8001FF8000008000018000017
:103710000004000007FFF80FFFF000181800100861
:10372000002008002008003018001FF0000FC00023
:1037300000000000000007C0001FF000183000204B
:1037400008002008002008003C08001C1000006051
:103750000000000000000000000007C0001FF00093
:10376000381800200800200800200804101007FF67
:10377000F80FFFF000001000000000000000000043
:103780000007C0001FF000123000221800220800BD
:103790002208003208001E10000E20000000000069
:1037A0000000200000200800200801FFF803FFF8B7
:1037B0000620080420080420080720000300000059
:1037C000000000000000000E000E6E001FF300312C
:1037D000B10020B10020B1003191001F13002E1E56
:1037E00000200E00300000000004000807FFF80F62
:1037F000FFF8001008002000002000002008003F13
:10380000F8001FF8000008000000000000000000A1
:10381000002008002008002008063FF8063FF800B6
:103820000008000008000008000000000000000080
:103830000000000000000300000300200100200140
:10384000002003063FFE063FFC00000000000000D1
:10385000000000000004000807FFF80FFFF8000157
:1038600088000300002FC00038F80020380020082E
:103870000000080000000000000000000400080430
:10388000000804000807FFF80FFFF8000008000018
:1038900008000008000000000000002008003FF8B9
:1038A000003FF8001008002000003FF8003FF8003B
:1038B0001008002000003FF8003FF800000800005A
:1038C00000002008003FF8003FF80010080010003A
:1038D000002000002008003FF8001FF8000008004A
:1038E00000000000000007C0000FF000183000309A
:1038F00008002008002008003008001830000FF0F1
:103900000007C0000000000000002001003FFF0091
:103910003FFF00101100200900200800200800309F
:1039200038001FF0000FC00000000000000007C0BA
:10393000001FF000381800200800200800200900AF
:103940001011001FFF003FFF0000010000000020D9
:1039500008002008002008003FF8003FF800080891
:103960000010080020080020000030000030000097
:103970000000000000000000000C78001E1800335A
:10398000080023080021080021880021980030F059
:10399000003860000000000000002000002000004F
:1039A000200000FFF003FFF800200800200800209E
:1039B00008000030000000000000000000002000AF
:1039C000003FF0007FF80000180000080000080029
:1039D0002010003FF8007FF0000010000000000001
:1039E00000002000003000003C00003F800023F079
:1039F000000078000070002380003C0000300000D0
:103A00002000002000003C00003FE00023F8000000
:103A1000E0002700003E00003FE00021F80001E048
:103A2000003E0000200000000000200800200800E8
:103A30003838003E680027800003C8002CF80038A2
:103A400038002018002008000000000000002000BE
:103A5000003003003C01003F830023EC00007000B5
:103A60002380003C00002000002000000000000037
:103A7000000000000038080020380020F80023E88B
:103A8000002F88003E080038080020180000700051
:103A90000000000000000000000000000000000026
:103AA000000008000014001FF7FC30000620000290
:103AB0000000000000000000000000000000000006
:103AC0000000000000000000FFFFFF0000000000F9
:103AD00000000000000000000000000000000000E6
:103AE0002000023000061FF7FC0014000008000050
:103AF00000000000000000000000000000000000C6
:103B0000001800006000004000004000002000009D
:103B10001000000800000400000400000C00001069
:103B20000000000000000000000000000000000095
:103B30000000000000000000000000000000000085
:103B40000000000000000000000000000000000075
:103B50000000000000000000000000000000000065
:103B60000000000000000000000000000000000055
:103B70000000000000000000000003F0006003FFF0
:103B8000F8F003FFF8F003FFF8F003F8006000001E
:103B90000000000000000000000000000000000025
:103BA0000000000000000000000000C0000001C094
:103BB0000000078000001F0000003E0000003CC025
:103BC000000039C00000078000001F0000003E0018
:103BD00000003C0000003800000000000000000071
:103BE000000000000000001C0E00001C0E00001C65
:103BF0000FF0001FFFF003FFFF0003FC0E00001C8E
:103C00000E00001C0E00001C0E00001C0FF0001F18
:103C1000FFF003FFFF0003FC0E00001C0E00001C61
:103C20000E000000000000000000000003C000784B
:103C300003E001FE03E001FF0330030F80100FFFDC
:103C4000FFFE0FFFFFFE0200E0300330F87001F0CE
:103C50007FE001F03FC000F00F8000000000000096
:103C60000000007E000001FF800003FFC000030091
:103C7000C0300300C1F003FFC7C001FFBE00007EDB
:103C8000F8000007DF80003F7FE000F8FFF003C08E
:103C9000C0300300C0300000FFF000007FE00000F3
:103CA0001F8000001F8000003FC000FEFFE001FFFA
:103CB000C07003FFF0300303FC1002077E1003FE08
:103CC0001FB003FC07E000F081E000008FF000006F
:103CD000FE700000F03000008070000080E0000006
:103CE00000C0000000000040000038C0000038C0E4
:103CF00000003F8000003F0000001E0000000000A8
:103D000000000000000000000000000000000000B3
:103D100000000000000000000000000000000000A3
:103D20000000000000000000000000000000000093
:103D3000000000000000000000000001C0F8000FBB
:103D4000F878001FFC38007FFE3800780F3800E05C
:103D5000033801C001B8018000F8018000F80100BB
:103D600000000100000001000000018000F8018057
:103D700000F801C001B800E0033800F80738007F00
:103D8000FE38003FFC38001FF8780003E0F8000020
:103D90000000000000000000000000000000000023
:103DA000000000000000000000000001C000000151
:103DB000C0000001C0000001C0000001C0000001FF
:103DC000C0000001C0000001C0000001C0000001EF
:103DD000C0000001C0000001C000000000000000A1
:103DE0000000000000000000000000008000000053
:103DF00080000000800000008000000080000000C3
:103E00008000007FFF00007FFF00000080000000B6
:103E100080000000800000008000000080000000A2
:103E200080000000000000000001000000E300002E
:103E300000E3000000FE000000FC0000007800002D
:103E40000000000000000000000000000000000072
:103E50000000000000000000000000000000000062
:103E60000000000000000000800000008000000052
:103E70008000000080000000800000008000000042
:103E80008000000080000000800000008000000032
:103E90008000000080000000800000008000000022
:103EA0008000000000000000000000000060000032
:103EB00000F0000000F0000000F0000000600000D2
:103EC00000000000000000000000000000000000F2
:103ED00000000000000000000000000000000000E2
:103EE0000000000000000000000C0000003C00008A
:103EF00000F8000003E000000F8000003E0000001A
:103F0000F8000003E000000F8000003E000000F811
:103F1000000003E000000F8000001E0000001800F9
:103F200000000000000000000000000FFC00007F07
:103F3000FF8000FFFFC001F003E00380007003007A
:103F4000003002000010020000100380007001E049
:103F500001E000FFFFC0007FFF80000FFC000000B9
:103F600000000000000000000000000000000080D1
:103F7000001000800010008000100080003001FF61
:103F8000FFF003FFFFF003FFFFF000000030000030
:103F900000100000001000000010000000000000F1
:103FA000000000000000000000000078007000F831
:103FB00000F0019801B00300033002000E3002004F
:103FC0001C3002003830020070300300E030038300
:103FD000C03001FF807001FF03F0007C03C00000CF
:103FE0000000000000000000000000F003C001F02D
:103FF00003E001F003E00300003002008010020043
:104000008010020080100301C0100383C03001FF44
:10401000606000FE7FE0007C3FC000000F000000F9
:1040200000000000000000000C0000003C00000048
:1040300074000001E40000078400000E0410003842
:10404000041000F0041003FFFFF003FFFFF003FF74
:10405000FFF0000004100000041000000410000035
:1040600000000000000000000000000003C000FF8E
:10407000C3E003FFC32003018030030300100302E9
:1040800000100302001003020010030300300303BA
:1040900080E00301FFE00300FFC003003F000000D9
:1040A000000000000000000000000007FE00003FCC
:1040B000FF8000FFFFE001E1C1E001830070030326
:1040C000003002020010020200100203003003C39D
:1040D000807001C1FFE001C0FFC000003F00000090
:1040E000000000000000000000000070000003F06D
:1040F000000003C0000003000000030003F0030001
:104100003FF00300FFF00307C000031F0000037827
:10411000000003E000000380000003000000000036
:1041200000000000000000000F80007C3FC000FE87
:104130007FE001FF7060038FC03003038010020333
:1041400080100201C0100200E0100301F030038370
:10415000786001FE7FE000FE3FC000780F80000025
:10416000000000000000003F800000FFC0E001FFF1
:10417000E0E001C0F0F00300301002001010020077
:1041800010100200103002003070030060E001C027
:10419000E7C000FFFF80007FFE00001FF800000066
:1041A000000000000000000000000000000000000F
:1041B0000000000000000000000000030060000795
:1041C00080F0000780F0000780F00003006000002E
:1041D00000000000000000000000000000000000DF
:1041E00000000000000000000000000000000000CF
:1041F00000000000000000000000000380760003C3
:10420000807E0003807E00038078000000000000B4
:10421000000000000000000000000000000000009E
:10422000000000000000000000000000000000008E
:10423000C0000001E0000003300000061800000C80
:104240000C0000180600003003000060018000C070
:1042500000C0018000600300003002000010000078
:104260000000000000000004100000041000000422
:1042700010000004100000041000000410000004EE
:1042800010000004100000041000000410000004DE
:1042900010000004100000041000000410000004CE
:1042A00010000000000000000000020000100300E9
:1042B00000300180006000C000C00060018000305C
:1042C000030000180600000C0C0000061800000394
:1042D00030000001E0000000C0000000000000000D
:1042E00000000000000000000000003C000000FC96
:1042F000000001FC0000019C0000030000600200BF
:1043000000F002007CF00200FCF00200C06003013B
:1043100080000183800001FF000000FE0000007C9F
:104320000000000000000007F800003FFF00007FD1
:10433000FFC000F003E001C1FC600387FE30031FF3
:10434000FE10023E061002303C10023FFE10033FFA
:10435000FE3001BC066000E01CE0007FF9C0001FD9
:10436000E1000000001000000030000001F000003B
:104370003FF00003FE10003FF01003FE100003C0EA
:10438000100003FC100003FFD000003FFE100001EE
:10439000FFF000001FF0000001F0000000300000FE
:1043A000001000000000020000100200001003FFD7
:1043B000FFF003FFFFF003FFFFF002008010020098
:1043C000801002008010020080100301801003831F
:1043D000C03001FF607001FE7FE0007C3FC0000044
:1043E0000F80000000000007FC00003FFF00007F7E
:1043F000FFC000F803E001C00060030000300300CC
:104400000010020000100200001002000010030063
:1044100000300180006001C000C001F00380007026
:10442000030000000000020000100200001003FF63
:10443000FFF003FFFFF003FFFFF002000010020097
:104440000010020000100300003003000030018063
:1044500000E001F003C000FFFFC0003FFF00000FBD
:10446000F80000000000020000100200001003FF2E
:10447000FFF003FFFFF003FFFFF0020080100200D7
:10448000801002008010020080100201C01002079C
:10449000F0100307F0300380007003E001F00060CB
:1044A000018000000000020000100200001003FF65
:1044B000FFF003FFFFF003FFFFF002008010020097
:1044C000801002008000020080000201C00003078B
:1044D000F8000307F8000380000003E0000000601C
:1044E0000000000000000007F800003FFF00007F10
:1044F000FFC001F003E001C00070030000300200C3
:10450000001002000010020020100300203001C043
:104510003FE001F03FC000703FC0000020000000FD
:104520002000020000100200001003FFFFF003FF54
:10453000FFF003FFFFF00200801002008010000077
:104540008000000080000000800002008010020057
:10455000801003FFFFF003FFFFF003FFFFF00200F6
:104560000010000000000000000000000000020039
:10457000001002000010020000100200001003FFF3
:10458000FFF003FFFFF003FFFFF002000010020046
:1045900000100200001002000010000000000000E7
:1045A0000000000000000000000E0000000F0000EE
:1045B000000F0000000F02000001020000010200D5
:1045C00000030200000703FFFFFE03FFFFFC03FFE1
:1045D000FFF80200000002000000020000000200DC
:1045E000000000000000020000100200001003FFA5
:1045F000FFF003FFFFF003FFFFF00201C01002070E
:10460000C010001FF0000278FC0003E03F9003C0E0
:104610000FF0030003F00200007002000010000021
:10462000001000000000020000100200001003FF54
:10463000FFF003FFFFF003FFFFF002000010020095
:10464000001000000010000000100000001000002A
:1046500000100000003000000070000001F00000B9
:104660000180020000100200001003FFFFF003FFB2
:10467000FFF003FF801001FFF800000FFFC00000F3
:104680007FF000000FF00001FF00001FF01001FE9E
:10469000001003FFFFF003FFFFF003FFFFF0020035
:1046A0000010020000100200001003FFFFF003FFE3
:1046B000FFF003E0001001F80010007E0000001F72
:1046C00080000007E0000001F80000007E0002000A
:1046D0001F80020007E003FFFFF003FFFFF002006E
:1046E000000000000000000FF800003FFF0000FF86
:1046F000FFC001F003E00180006003000030020011
:1047000000100200001002000010030000300180C1
:10471000006001F003E000FFFFC0003FFF00000762
:10472000FC0000000000020000100200001003FF67
:10473000FFF003FFFFF003FFFFF002004010020054
:104740004010020040000200400002004000030050
:10475000C0000381800001FF800000FF0000007E98
:10476000000000000000000FFC00003FFF8000FF81
:10477000FFC001F001E0018003E00300023002000D
:10478000021002000310020003F0030001FC01808C
:1047900000FE01F001EE00FFFFC6003FFF8E000F9C
:1047A000FC0800000000020000100200001003FFDF
:1047B000FFF003FFFFF003FFFFF002008010020094
:1047C00080100200E0000200FC000301FF80038370
:1047D0009FF001FF03F001FE0070007C001000005C
:1047E000001000000000007C070000FE07F001FF41
:1047F00001F0038700600303803002038010020190
:10480000C0100201C0100300E0100300E03001C03E
:10481000787003F07FE003F03FC000000F800000DD
:104820000000000000000060000003E000000380C2
:10483000000003000000020000100200001003FF4F
:10484000FFF003FFFFF003FFFFF002000010020083
:104850000010020000000380000003E0000000E000
:104860000000020000000200000003FFFF8003FFC1
:10487000FFE003FFFFE002000070020000300000D4
:1048800000100000001000000010020000300200C4
:10489000006003FFFFC003FFFF8002000000020072
:1048A000000000000000020000000200000003E021
:1048B000000003FF000003FFF000021FFF000000E4
:1048C000FFF000000FF000001FC00001FE00021FFB
:1048D000E00003FE000003E000000300000002000F
:1048E0000000020000000380000003FF000003FF3F
:1048F000FC00021FFFF000003FF002007FC003CF6A
:10490000F80003FF800003FFFF00021FFFF000001C
:104910003FF00203FF8003FFF00003FC00000300F0
:1049200000000000000002000010020000100380E0
:10493000007003E001F003F807D0027E1E10001F94
:10494000F8000007F000000FFE00023C3F9002F06C
:104950000FF003C003F003000070020000300200FB
:10496000001000000000020000000300000003C06F
:10497000000003F8000003FE0010023FC010020711
:10498000FFF00001FFF00001FFF0020F8010027E37
:10499000001003F00000038000000200000002008D
:1049A000000000000000000000100060007003E044
:1049B00001F003C003F003800F9003003E100200DB
:1049C000FC100203F010020FC010021F0010027C46
:1049D000003003F0003003E000F0038001F002003B
:1049E0000180000000000000000000000000000046
:1049F00000000000000000000000000000000000B7
:104A000000000000000000000000000000000000A6
:104A10000000000000000000000000000000000096
:104A20000000000000000000000000000000000086
:104A30000000000000000000000000000000000076
:104A40000000000000000000000000000000000066
:104A50000000000000000000000000000000000056
:104A60000000000000000000000000000000000046
:104A7000000000180000380000380000380000383E
:104A8000000038000038000038000038000038000E
:104A900000180000180000100000100000100000B6
:104AA00010000010000010000010000010000010A6
:104AB00000001000001000000000000000000000D6
:104AC000000000000000000000003800007C000032
:104AD0007C00007C000038000000000000000000A6
:104AE00000000000000000000000000000000000C6
:104AF00000000000000000000000000000000000B6
:104B0000000003E3E003C3C00787800707000E0E21
:104B1000000C0C001818001010000000000000002D
:104B20000000000000000000000000000000000085
:104B30000000000000000000000000000000000075
:104B40000000000000000000000000000000000065
:104B50000000000000000000000000000000000055
:104B60000000000000000000000000000000000045
:104B70000000000000000000000000000000000035
:104B80000000000000000000000000000000000025
:104B90000000000000018060018060018060010071
:104BA000400100400100400100400100403FFFFC87
:104BB0003FFFFC3FFFFC3FFFFC0300C00300C003BE
:104BC00000C00300C00300C00300C00300C0020017
:104BD000800200803FFFFC3FFFFC3FFFFC3FFFFCEB
:104BE000060180060180060180060180060180061C
:104BF0000180060180060180000000000000000026
:104C000000000000000000000000000000000000A4
:104C10000000000000000000000000000000000094
:104C20000000001800007F0001D9C00318E0071839
:104C3000600618700E18700E18F00E18F00E18E0BE
:104C40000F180007980007D80003F80001F80000CB
:104C5000FC00007E00003F00001F80001FC0001B02
:104C6000E00019E00018F00018F00E18701E18701F
:104C70001E18701E18701C18700C18600C18E006B6
:104C800018C0031B8000FE00001800001800001868
:104C900000001800001800000000000000000000E4
:104CA0000000000000000000000000000000000004
:104CB00000000000000F002018806030C04020403D
:104CC000C0606080606080606180606100606300DF
:104CD000606200606200606600606400304C00301A
:104CE000C8001988000F18F000119800330C002339
:104CF0000C002204006606004606004606008606F2
:104D00000086060186060106060106060202040266
:104D1000030C0601980400F00000000000000000F1
:104D20000000000000000000000000000000000083
:104D30000000000000000000000000000000000073
:104D4000000000000001F000033800071800061CF6
:104D5000000E1C000E1C000E1C000E1C000E1C0081
:104D60000E18000E38000F300007700007600007B3
:104D700080000787F80B80E01BC0C039C0C031E05D
:104D8000C031E0C070F08070F08070798070398040
:104D9000703D00701F00780E00380F023C0F861E19
:104DA0001BC40FF1FC07C0700000000000000000F1
:104DB00000000000000000000000000000000000F3
:104DC00000000000000000000000000000000000E3
:104DD00000000F8000038000038000030000060035
:104DE000000E00001C000030000000000000000069
:104DF00000000000000000000000000000000000B3
:104E000000000000000000000000000000000000A2
:104E10000000000000000000000000000000000092
:104E20000000000000000000000000000000000082
:104E30000000000000000000000000000000000072
:104E40000000000000000000000000000000000062
:104E50000000000000000000000000000000000052
:104E600000000001800001000003000006000006B1
:104E700000000C00000C00000C00001800001800DE
:104E8000001800003000003000003000003000004A
:104E900030000030000030000030000030000030F2
:104EA0000000300000180000180000180000080082
:104EB000000C00000C0000060000060000030000CB
:104EC00001000001800000C0000060000030000010
:104ED00010000008000000000000000000000000BA
:104EE00000000000000000000000000000000000C2
:104EF000000001800000800000C000006000006031
:104F000000003000003000003000001800001800E1
:104F1000001800000C00000C00000C00000C000049
:104F20000C00000C00000C00000C00000C00000C39
:104F300000000C000018000018000018000010000D
:104F400000300000300000600000600000C0000081
:104F500080000180000300000600000C0000080033
:104F60000010000000000000000000000000000031
:104F70000000000000000000000000000000000031
:104F80000000000000000000000000000000000021
:104F900000003800003800003800003800003800F9
:104FA0003038387C387C7E10FC3F11F80F93E001DC
:104FB000D70000380000380001D7000F93E03F1100
:104FC000F87E10FC7C387C70381C003800003800FB
:104FD0000038000038000038000000000000000029
:104FE00000000000000000000000000000000000C1
:104FF00000000000000000000000000000000000B1
:1050000000000000000000000000000000000000A0
:105010000000000000000000000000000000000090
:105020000000180000180000180000180000180008
:1050300000180000180000180000180000180000F8
:1050400018003FFFFC3FFFFC00180000180000188C
:1050500000001800001800001800001800001800D8
:1050600000180000180000180000000000000000F8
:105070000000000000000000000000000000000030
:105080000000000000000000000000000000000020
:105090000000000000000000000000000000000010
:1050A0000000000000000000000000000000000000
:1050B00000000000000000000000000000000000F0
:1050C00000000000000000000000000000000000E0
:1050D00000000000000000000000000000000000D0
:1050E00000000000000000000000000000000000C0
:1050F0000000000000000E00001F00001F80001FC5
:1051000080000F8000038000038000030000060081
:10511000000E00001C000030000000000000000035
:10512000000000000000000000000000000000007F
:10513000000000000000000000000000000000006F
:10514000000000000000000000000000000000005F
:10515000000000000000000000000000000000004F
:1051600000003FFFFC3FFFFC0000000000000000CB
:10517000000000000000000000000000000000002F
:10518000000000000000000000000000000000001F
:10519000000000000000000000000000000000000F
:1051A00000000000000000000000000000000000FF
:1051B00000000000000000000000000000000000EF
:1051C00000000000000000000000000000000000DF
:1051D00000000000000000000000000000000000CF
:1051E00000000000000000000000000000000000BF
:1051F00000000000000000000000000000000000AF
:10520000000000000000000000000000000000009E
:105210000000000000000F00001F80001F80001F22
:1052200080001F80000F0000000000000000000050
:10523000000000000000000000000000000000006E
:10524000000000000000000000000000000000005E
:1052500000000000180000100000300000200000D6
:10526000600000400000400000800000800001005D
:10527000000100000300000200000600000400001E
:105280000C00000800001800001000003000002092
:105290000000600000400000C000008000008000AE
:1052A00001000001000002000002000006000004EE
:1052B00000000C0000080000180000100000300082
:1052C00000200000000000000000000000000000BE
:1052D00000000000000000000000000000000000CE
:1052E0000000000000007E0001C3800380C00300B6
:1052F000E00600600E00700C00301C00381C003806
:105300001C003818001C38001C38001C38001C38E1
:10531000001C38001C38001C38001C38001C3800E9
:105320001C38001C38001C1800181C00381C0038E1
:105330001C00380C00300E00700600600300E00313
:1053400080C000C380007E0000000000000000005C
:10535000000000000000000000000000000000004D
:10536000000000000000000000000000000000003D
:105370000000000000000400000C00001C0003FC02
:1053800000001C00001C00001C00001C00001C0091
:10539000001C00001C00001C00001C00001C000081
:1053A0001C00001C00001C00001C00001C00001C55
:1053B00000001C00001C00001C00001C00001C0061
:1053C000001C00001C00001C00001C00001C000051
:1053D0001C00003E0003FFE0000000000000000091
:1053E00000000000000000000000000000000000BD
:1053F00000000000000000000000000000000000AD
:105400000000000000007F000183C00600E00C00E7
:10541000700C00701C00381C00381C00381E00384E
:105420001E00380E00380000700000700000E00020
:1054300000E00001C0000380000700000E00001C17
:105440000000380000700000E00001C00003800090
:105450000700080600080C00181C00103800703FF8
:10546000FFF03FFFF03FFFF00000000000000000F1
:10547000000000000000000000000000000000002C
:10548000000000000000000000000000000000001C
:105490000000000000007E000183800201C00400C3
:1054A000E00C00E00C00700E00700E007006007042
:1054B0000000700000600000E00000C000018000FB
:1054C0000700007C000007000001C00000E00000B1
:1054D000700000300000380000380000380C003840
:1054E0001E00381E00381E00301C00700C006006C4
:1054F00000C003038000FE00000000000000000068
:10550000000000000000000000000000000000009B
:10551000000000000000000000000000000000008B
:1055200000000000000001800003800003800007ED
:1055300080000F80000B8000138000138000238008
:1055400000638000438000C38000838001038003E8
:1055500003800203800603800403800C0380180389
:10556000801803803003803FFFFC0003800003802D
:10557000000380000380000380000380000380009C
:1055800003800007C0007FFC000000000000000056
:10559000000000000000000000000000000000000B
:1055A00000000000000000000000000000000000FB
:1055B000000000000007FFF007FFF007FFF0040005
:1055C000000400000400000400000400000C0000BF
:1055D0000C00000C00000C00000C7F000CFF800D84
:1055E00081E00F00E00E00700C00700000780000F9
:1055F000380000380000380000380C00381E003831
:105600001E00381E00301C00700C00700C00E006FC
:1056100000C003838000FE000000000000000000C6
:10562000000000000000000000000000000000007A
:10563000000000000000000000000000000000006A
:105640000000000000001F8000E0400180600300B7
:10565000700600700600700C00000C00001C0000BA
:105660001C0000180000180000383F0038FFC03947
:10567000C1E03B00703E00383C00383C001C380064
:105680001C38001C38001C38001C38001C18001C7A
:105690001C001C1C00180C00380E003807003003DA
:1056A000806001C1C0007F00000000000000000019
:1056B00000000000000000000000000000000000EA
:1056C00000000000000000000000000000000000DA
:1056D00000000000000FFFF80FFFF80FFFF00E00B2
:1056E000300C00201800401800C01000800001801D
:1056F0000001000003000002000006000006000098
:105700000C00000C00001800001800001800003801
:105710000000300000700000700000700000700099
:1057200000F00000F00000F00000F00000F00000C9
:10573000F00000F000006000000000000000000029
:105740000000000000000000000000000000000059
:105750000000000000000000000000000000000049
:105760000000000000007F000381C00700E00E0081
:10577000700E00701C00381C00381C00381C0038EB
:105780001E00381E00300F007007C0E007E1C001A6
:10579000FB8000FE0003BF00070FC00E03E00C01FA
:1057A000E01C00F01C0070380078380038380038F1
:1057B0003800383800381800301C00700C006006C3
:1057C00000C003818000FE00000000000000000017
:1057D00000000000000000000000000000000000C9
:1057E00000000000000000000000000000000000B9
:1057F000000000000000FC000383000601800E0092
:10580000C01C00601C006018007038003038003088
:105810003800383800383800383800383800383C1C
:1058200000781C00F81C00B81E01B80F873807FE6E
:105830003801F8380000700000700000700000703F
:105840000000600000E00E00C00E01C00E03800EDC
:105850000700060E0001F800000000000000000034
:105860000000000000000000000000000000000038
:105870000000000000000000000000000000000028
:105880000000000000000000000000000000000018
:105890000000000000000000000000000000000008
:1058A000000000003800007C00007C00007C00004C
:1058B00038000000000000000000000000000000B0
:1058C00000000000000000000000000000000000D8
:1058D000000000000000000000003800007C000014
:1058E0007C00007C00003800000000000000000088
:1058F00000000000000000000000000000000000A8
:105900000000000000000000000000000000000097
:105910000000000000000000000000000000000087
:105920000000000000000000000000000000000077
:10593000000000000000000000003C00003C0000EF
:105940003C00003C000000000000000000000000DF
:105950000000000000000000000000000000000047
:10596000000000000000000000000000003C0000FB
:105970003C00003C00003C00000C00001800001837
:1059800000001000003000000000000000000000D7
:105990000000000000000000000000000000000007
:1059A000000000000000001000003800007000003F
:1059B000E00001C0000380000600000C0000180099
:1059C00000300000600000C00001800003000006FD
:1059D00000000C00001800000C000006000003008E
:1059E0000001800000C000006000003000001800CE
:1059F000000C000006000003800001C00000E00071
:105A000000700000380000100000000000000000DE
:105A10000000000000000000000000000000000086
:105A20000000000000000000000000000000000076
:105A30000000000000000000000000000000000066
:105A40000000000000000000000000000000000056
:105A50000000003FFFFC3FFFFC00000000000000D2
:105A600000000000000000000000000000003FFFF8
:105A7000FC3FFFFC000000000000000000000000F0
:105A80000000000000000000000000000000000016
:105A90000000000000000000000000000000000006
:105AA00000000000000000000000000000000000F6
:105AB00000000000000000000000000000000000E6
:105AC00000000000000800001C00000E000007009D
:105AD0000003800001C000006000003000001800DA
